:0100000007F8
:0100010007F7
:0100020007F6
:0100030007F5
:0100040007F4
:0100050007F3
:0100060000F9
:0100070000F8
:0100080000F7
:0100090000F6
:01000A0007EE
:01000B0007ED
:01000C0007EC
:01000D0007EB
:01000E0007EA
:01000F0007E9
:0100100007E8
:0100110007E7
:0100120007E6
:0100130007E5
:0100140007E4
:0100150007E3
:0100160007E2
:0100170007E1
:0100180007E0
:0100190007DF
:01001A0007DE
:01001B0007DD
:01001C0007DC
:01001D0007DB
:01001E0007DA
:01001F0007D9
:0100200007D8
:0100210007D7
:0100220007D6
:0100230007D5
:0100240007D4
:0100250007D3
:0100260000D9
:0100270000D8
:0100280000D7
:0100290000D6
:01002A0007CE
:01002B0007CD
:01002C0007CC
:01002D0007CB
:01002E0007CA
:01002F0007C9
:0100300007C8
:0100310007C7
:0100320007C6
:0100330007C5
:0100340007C4
:0100350007C3
:0100360007C2
:0100370007C1
:0100380007C0
:0100390007BF
:01003A0007BE
:01003B0007BD
:01003C0007BC
:01003D0007BB
:01003E0007BA
:01003F0007B9
:0100400007B8
:0100410007B7
:0100420007B6
:0100430007B5
:0100440007B4
:0100450007B3
:0100460000B9
:0100470000B8
:0100480005B2
:0100490005B1
:01004A0005B0
:01004B0005AF
:01004C0005AE
:01004D0005AD
:01004E0005AC
:01004F0005AB
:0100500005AA
:0100510005A9
:0100520005A8
:0100530005A7
:0100540005A6
:0100550005A5
:0100560007A2
:0100570007A1
:0100580007A0
:01005900079F
:01005A00079E
:01005B00079D
:01005C00079C
:01005D00079B
:01005E00079A
:01005F000799
:010060000798
:010061000797
:010062000796
:010063000795
:010064000794
:010065000793
:010066000099
:010067000098
:010068000592
:010069000591
:01006A000590
:01006B00058F
:01006C00058E
:01006D00058D
:01006E00058C
:01006F00058B
:01007000058A
:010071000589
:010072000588
:010073000587
:010074000586
:010075000585
:010076000782
:010077000781
:010078000780
:01007900077F
:01007A00077E
:01007B00077D
:01007C00077C
:01007D00077B
:01007E00077A
:01007F000779
:010080000778
:010081000777
:010082000776
:010083000775
:010084000774
:010085000773
:010086000574
:010087000573
:010088000572
:010089000571
:01008A000570
:01008B00056F
:01008C00056E
:01008D00056D
:01008E00056C
:01008F00056B
:01009000056A
:010091000569
:010092000568
:010093000567
:010094000566
:010095000565
:010096000564
:010097000563
:010098000562
:010099000561
:01009A00075E
:01009B00075D
:01009C00075C
:01009D00075B
:01009E00075A
:01009F000759
:0100A0000758
:0100A1000757
:0100A2000756
:0100A3000755
:0100A4000754
:0100A5000753
:0100A6000554
:0100A7000553
:0100A8000552
:0100A9000551
:0100AA000550
:0100AB00054F
:0100AC00054E
:0100AD00054D
:0100AE00054C
:0100AF00054B
:0100B000054A
:0100B1000549
:0100B2000548
:0100B3000547
:0100B4000546
:0100B5000545
:0100B6000544
:0100B7000543
:0100B8000542
:0100B9000541
:0100BA00073E
:0100BB00073D
:0100BC00073C
:0100BD00073B
:0100BE00073A
:0100BF000739
:0100C0000738
:0100C1000737
:0100C2000736
:0100C3000735
:0100C4000734
:0100C5000733
:0100C6000534
:0100C7000533
:0100C8000532
:0100C9000531
:0100CA000530
:0100CB00052F
:0100CC00052E
:0100CD00052D
:0100CE00052C
:0100CF00052B
:0100D000052A
:0100D1000529
:0100D2000528
:0100D3000527
:0100D4000526
:0100D5000525
:0100D6000524
:0100D7000523
:0100D8000522
:0100D9000521
:0100DA00071E
:0100DB00071D
:0100DC00071C
:0100DD00071B
:0100DE00071A
:0100DF000719
:0100E0000718
:0100E1000717
:0100E2000716
:0100E3000715
:0100E4000714
:0100E5000713
:0100E6000514
:0100E7000513
:0100E8000512
:0100E9000511
:0100EA000510
:0100EB00050F
:0100EC00050E
:0100ED00050D
:0100EE00050C
:0100EF00050B
:0100F000050A
:0100F1000509
:0100F2000508
:0100F3000507
:0100F4000506
:0100F5000505
:0100F6000504
:0100F7000503
:0100F8000502
:0100F9000501
:0100FA0007FE
:0100FB0007FD
:0100FC0007FC
:0100FD0007FB
:0100FE0007FA
:0100FF0007F9
:0101000007F7
:0101010007F6
:0101020007F5
:0101030007F4
:0101040007F3
:0101050007F2
:0101060005F3
:0101070005F2
:0101080004F2
:0101090004F1
:01010A0004F0
:01010B0004EF
:01010C0004EE
:01010D0004ED
:01010E0004EC
:01010F0004EB
:0101100004EA
:0101110004E9
:0101120004E8
:0101130004E7
:0101140004E6
:0101150004E5
:0101160004E4
:0101170004E3
:0101180004E2
:0101190004E1
:01011A0007DD
:01011B0007DC
:01011C0007DB
:01011D0007DA
:01011E0007D9
:01011F0007D8
:0101200007D7
:0101210007D6
:0101220007D5
:0101230007D4
:0101240007D3
:0101250007D2
:0101260005D3
:0101270005D2
:0101280004D2
:0101290004D1
:01012A0004D0
:01012B0004CF
:01012C0004CE
:01012D0004CD
:01012E0004CC
:01012F0004CB
:0101300004CA
:0101310004C9
:0101320004C8
:0101330004C7
:0101340004C6
:0101350004C5
:0101360004C4
:0101370004C3
:0101380004C2
:0101390004C1
:01013A0007BD
:01013B0007BC
:01013C0007BB
:01013D0007BA
:01013E0007B9
:01013F0007B8
:0101400007B7
:0101410007B6
:0101420007B5
:0101430007B4
:0101440007B3
:0101450007B2
:0101460005B3
:0101470005B2
:0101480004B2
:0101490004B1
:01014A0000B4
:01014B0000B3
:01014C0000B2
:01014D0000B1
:01014E0000B0
:01014F0000AF
:0101500000AE
:0101510000AD
:0101520000AC
:0101530000AB
:0101540000AA
:0101550000A9
:0101560000A8
:0101570000A7
:0101580000A6
:0101590000A5
:01015A00079D
:01015B00079C
:01015C00079B
:01015D00079A
:01015E000799
:01015F000798
:010160000797
:010161000796
:010162000795
:010163000794
:010164000793
:010165000792
:010166000593
:010167000592
:010168000492
:010169000491
:01016A000094
:01016B000093
:01016C000092
:01016D000091
:01016E000090
:01016F00008F
:01017000008E
:01017100008D
:01017200008C
:01017300008B
:01017400008A
:010175000089
:010176000088
:010177000087
:010178000086
:010179000085
:01017A00077D
:01017B00077C
:01017C00077B
:01017D00077A
:01017E000779
:01017F000778
:010180000777
:010181000776
:010182000775
:010183000774
:010184000773
:010185000772
:010186000573
:010187000572
:010188000472
:010189000471
:01018A000470
:01018B00046F
:01018C00046E
:01018D00046D
:01018E00046C
:01018F00046B
:01019000006E
:01019100006D
:01019200006C
:01019300006B
:010194000466
:010195000465
:010196000464
:010197000463
:010198000462
:010199000461
:01019A00075D
:01019B00075C
:01019C00075B
:01019D00075A
:01019E000759
:01019F000758
:0101A0000757
:0101A1000756
:0101A2000755
:0101A3000754
:0101A4000753
:0101A5000752
:0101A6000553
:0101A7000552
:0101A8000452
:0101A9000451
:0101AA000450
:0101AB00044F
:0101AC00044E
:0101AD00044D
:0101AE00044C
:0101AF00044B
:0101B000004E
:0101B100004D
:0101B200004C
:0101B300004B
:0101B4000446
:0101B5000445
:0101B6000444
:0101B7000443
:0101B8000442
:0101B9000441
:0101BA00073D
:0101BB00073C
:0101BC00073B
:0101BD00073A
:0101BE000739
:0101BF000738
:0101C0000737
:0101C1000736
:0101C2000735
:0101C3000734
:0101C4000733
:0101C5000732
:0101C6000533
:0101C7000532
:0101C8000531
:0101C9000530
:0101CA000430
:0101CB00042F
:0101CC00042E
:0101CD00042D
:0101CE00042C
:0101CF00042B
:0101D000002E
:0101D100002D
:0101D200002C
:0101D300002B
:0101D4000426
:0101D5000425
:0101D6000424
:0101D7000423
:0101D8000521
:0101D9000520
:0101DA00071D
:0101DB00071C
:0101DC00071B
:0101DD00071A
:0101DE000719
:0101DF000718
:0101E0000717
:0101E1000716
:0101E2000715
:0101E3000714
:0101E4000713
:0101E5000712
:0101E6000513
:0101E7000512
:0101E8000511
:0101E9000510
:0101EA000410
:0101EB00040F
:0101EC00040E
:0101ED00040D
:0101EE00040C
:0101EF00040B
:0101F000000E
:0101F100000D
:0101F200000C
:0101F300000B
:0101F4000406
:0101F5000405
:0101F6000404
:0101F7000403
:0101F8000501
:0101F9000500
:0101FA0007FD
:0101FB0007FC
:0101FC0007FB
:0101FD0007FA
:0101FE0007F9
:0101FF0007F8
:0102000007F6
:0102010007F5
:0102020007F4
:0102030007F3
:0102040007F2
:0102050007F1
:0102060007F0
:0102070007EF
:0102080007EE
:0102090007ED
:01020A0001F2
:01020B0001F1
:01020C0002EF
:01020D0002EE
:01020E0001EE
:01020F0001ED
:0102100001EC
:0102110001EB
:0102120002E9
:0102130002E8
:0102140001E8
:0102150001E7
:0102160007E0
:0102170007DF
:0102180007DE
:0102190007DD
:01021A0007DC
:01021B0007DB
:01021C0007DA
:01021D0007D9
:01021E0007D8
:01021F0007D7
:0102200007D6
:0102210007D5
:0102220007D4
:0102230007D3
:0102240007D2
:0102250007D1
:0102260007D0
:0102270007CF
:0102280007CE
:0102290007CD
:01022A0001D2
:01022B0001D1
:01022C0002CF
:01022D0002CE
:01022E0001CE
:01022F0001CD
:0102300001CC
:0102310001CB
:0102320002C9
:0102330002C8
:0102340001C8
:0102350001C7
:0102360007C0
:0102370007BF
:0102380007BE
:0102390007BD
:01023A0007BC
:01023B0007BB
:01023C0007BA
:01023D0007B9
:01023E0007B8
:01023F0007B7
:0102400007B6
:0102410007B5
:0102420007B4
:0102430007B3
:0102440007B2
:0102450007B1
:0102460007B0
:0102470007AF
:0102480007AE
:0102490007AD
:01024A0002B1
:01024B0002B0
:01024C0002AF
:01024D0002AE
:01024E0002AD
:01024F0002AC
:0102500002AB
:0102510002AA
:0102520002A9
:0102530002A8
:0102540002A7
:0102550002A6
:0102560007A0
:01025700079F
:01025800079E
:01025900079D
:01025A00079C
:01025B00079B
:01025C00079A
:01025D000799
:01025E000798
:01025F000797
:010260000796
:010261000795
:010262000794
:010263000793
:010264000792
:010265000791
:010266000790
:01026700078F
:01026800078E
:01026900078D
:01026A000291
:01026B000290
:01026C00028F
:01026D00028E
:01026E00028D
:01026F00028C
:01027000028B
:01027100028A
:010272000289
:010273000288
:010274000287
:010275000286
:010276000780
:01027700077F
:01027800077E
:01027900077D
:01027A00077C
:01027B00077B
:01027C00077A
:01027D000779
:01027E000778
:01027F000777
:010280000776
:010281000775
:010282000774
:010283000773
:010284000772
:010285000771
:010286000770
:01028700076F
:01028800076E
:01028900076D
:01028A000172
:01028B000171
:01028C00026F
:01028D00026E
:01028E00026D
:01028F00026C
:01029000026B
:01029100026A
:010292000269
:010293000268
:010294000564
:010295000563
:010296000760
:01029700075F
:01029800075E
:01029900075D
:01029A00075C
:01029B00075B
:01029C00075A
:01029D000759
:01029E000758
:01029F000757
:0102A0000756
:0102A1000755
:0102A2000754
:0102A3000753
:0102A4000752
:0102A5000751
:0102A6000750
:0102A700074F
:0102A800074E
:0102A900074D
:0102AA000152
:0102AB000151
:0102AC00024F
:0102AD00024E
:0102AE00024D
:0102AF00024C
:0102B000024B
:0102B100024A
:0102B2000249
:0102B3000248
:0102B4000544
:0102B5000543
:0102B6000740
:0102B700073F
:0102B800073E
:0102B900073D
:0102BA00073C
:0102BB00073B
:0102BC00073A
:0102BD000739
:0102BE000738
:0102BF000737
:0102C0000736
:0102C1000735
:0102C2000734
:0102C3000733
:0102C4000732
:0102C5000731
:0102C6000730
:0102C700072F
:0102C800072E
:0102C900072D
:0102CA000132
:0102CB000131
:0102CC00022F
:0102CD00022E
:0102CE00022D
:0102CF00022C
:0102D000022B
:0102D100022A
:0102D2000229
:0102D3000228
:0102D4000524
:0102D5000523
:0102D6000720
:0102D700071F
:0102D800071E
:0102D900071D
:0102DA00071C
:0102DB00071B
:0102DC00071A
:0102DD000719
:0102DE000718
:0102DF000717
:0102E0000716
:0102E1000715
:0102E2000714
:0102E3000713
:0102E4000712
:0102E5000711
:0102E6000710
:0102E700070F
:0102E800070E
:0102E900070D
:0102EA000112
:0102EB000111
:0102EC00020F
:0102ED00020E
:0102EE00020D
:0102EF00020C
:0102F000020B
:0102F100020A
:0102F2000209
:0102F3000208
:0102F4000504
:0102F5000503
:0102F6000700
:0102F70007FF
:0102F80007FE
:0102F90007FD
:0102FA0007FC
:0102FB0007FB
:0102FC0007FA
:0102FD0007F9
:0102FE0007F8
:0102FF0007F7
:0103000007F5
:0103010007F4
:0103020007F3
:0103030007F2
:0103040007F1
:0103050007F0
:0103060007EF
:0103070007EE
:0103080007ED
:0103090007EC
:01030A0001F1
:01030B0001F0
:01030C0002EE
:01030D0002ED
:01030E0002EC
:01030F0002EB
:0103100002EA
:0103110002E9
:0103120002E8
:0103130002E7
:0103140006E2
:0103150006E1
:0103160007DF
:0103170007DE
:0103180007DD
:0103190007DC
:01031A0007DB
:01031B0007DA
:01031C0007D9
:01031D0007D8
:01031E0007D7
:01031F0007D6
:0103200007D5
:0103210007D4
:0103220007D3
:0103230007D2
:0103240007D1
:0103250007D0
:0103260007CF
:0103270007CE
:0103280007CD
:0103290007CC
:01032A0001D1
:01032B0001D0
:01032C0002CE
:01032D0002CD
:01032E0002CC
:01032F0002CB
:0103300002CA
:0103310002C9
:0103320002C8
:0103330002C7
:0103340006C2
:0103350006C1
:0103360007BF
:0103370007BE
:0103380007BD
:0103390007BC
:01033A0007BB
:01033B0007BA
:01033C0007B9
:01033D0007B8
:01033E0007B7
:01033F0007B6
:0103400007B5
:0103410007B4
:0103420007B3
:0103430007B2
:0103440007B1
:0103450007B0
:0103460007AF
:0103470007AE
:0103480007AD
:0103490007AC
:01034A0005AD
:01034B0005AC
:01034C0005AB
:01034D0005AA
:01034E0005A9
:01034F0005A8
:0103500005A7
:0103510005A6
:0103520005A5
:0103530005A4
:0103540005A3
:0103550005A2
:01035600079F
:01035700079E
:01035800079D
:01035900079C
:01035A00079B
:01035B00079A
:01035C000799
:01035D000798
:01035E000797
:01035F000796
:010360000795
:010361000794
:010362000793
:010363000792
:010364000791
:010365000790
:01036600078F
:01036700078E
:01036800078D
:01036900078C
:01036A00058D
:01036B00058C
:01036C00058B
:01036D00058A
:01036E000589
:01036F000588
:010370000587
:010371000586
:010372000585
:010373000584
:010374000583
:010375000582
:01037600077F
:01037700077E
:01037800077D
:01037900077C
:01037A00077B
:01037B00077A
:01037C000779
:01037D000778
:01037E000777
:01037F000776
:010380000775
:010381000774
:010382000773
:010383000772
:010384000771
:010385000770
:01038600076F
:01038700076E
:01038800076D
:01038900076C
:01038A00076B
:01038B00076A
:01038C00056B
:01038D00056A
:01038E000767
:01038F000766
:010390000765
:010391000764
:010392000565
:010393000564
:010394000761
:010395000760
:01039600075F
:01039700075E
:01039800075D
:01039900075C
:01039A00075B
:01039B00075A
:01039C000759
:01039D000758
:01039E000757
:01039F000756
:0103A0000755
:0103A1000754
:0103A2000753
:0103A3000752
:0103A4000751
:0103A5000750
:0103A600074F
:0103A700074E
:0103A800074D
:0103A900074C
:0103AA00074B
:0103AB00074A
:0103AC00054B
:0103AD00054A
:0103AE000747
:0103AF000746
:0103B0000745
:0103B1000744
:0103B2000545
:0103B3000544
:0103B4000741
:0103B5000740
:0103B600073F
:0103B700073E
:0103B800073D
:0103B900073C
:0103BA00073B
:0103BB00073A
:0103BC000739
:0103BD000738
:0103BE000737
:0103BF000736
:0103C0000735
:0103C1000734
:0103C2000733
:0103C3000732
:0103C4000731
:0103C5000730
:0103C600072F
:0103C700072E
:0103C800072D
:0103C900072C
:0103CA00072B
:0103CB00072A
:0103CC000030
:0103CD00002F
:0103CE000727
:0103CF000726
:0103D0000725
:0103D1000724
:0103D200002A
:0103D3000029
:0103D4000721
:0103D5000720
:0103D600071F
:0103D700071E
:0103D800071D
:0103D900071C
:0103DA00071B
:0103DB00071A
:0103DC000719
:0103DD000718
:0103DE000717
:0103DF000716
:0103E0000715
:0103E1000714
:0103E2000713
:0103E3000712
:0103E4000711
:0103E5000710
:0103E600070F
:0103E700070E
:0103E800070D
:0103E900070C
:0103EA00070B
:0103EB00070A
:0103EC000010
:0103ED00000F
:0103EE000707
:0103EF000706
:0103F0000705
:0103F1000704
:0103F200000A
:0103F3000702
:0103F4000701
:0103F5000700
:0103F60007FF
:0103F70007FE
:0103F80007FD
:0103F90007FC
:0103FA0007FB
:0103FB0007FA
:0103FC0007F9
:0103FD0007F8
:0103FE0007F7
:0103FF0007F6
:00000001FF
