:0100000007F8
:0100010007F7
:0100020007F6
:0100030007F5
:0100040007F4
:0100050007F3
:0100060007F2
:0100070007F1
:0100080007F0
:0100090007EF
:01000A0007EE
:01000B0007ED
:01000C0007EC
:01000D0007EB
:01000E0007EA
:01000F0007E9
:0100100006E9
:0100110006E8
:0100120006E7
:0100130006E6
:0100140007E4
:0100150007E3
:0100160007E2
:0100170007E1
:0100180007E0
:0100190007DF
:01001A0007DE
:01001B0007DD
:01001C0007DC
:01001D0007DB
:01001E0007DA
:01001F0007D9
:0100200007D8
:0100210007D7
:0100220007D6
:0100230007D5
:0100240007D4
:0100250007D3
:0100260007D2
:0100270007D1
:0100280007D0
:0100290007CF
:01002A0007CE
:01002B0007CD
:01002C0007CC
:01002D0007CB
:01002E0007CA
:01002F0007C9
:0100300006C9
:0100310006C8
:0100320006C7
:0100330006C6
:0100340007C4
:0100350007C3
:0100360007C2
:0100370007C1
:0100380007C0
:0100390007BF
:01003A0007BE
:01003B0007BD
:01003C0007BC
:01003D0007BB
:01003E0007BA
:01003F0007B9
:0100400007B8
:0100410007B7
:0100420007B6
:0100430007B5
:0100440004B7
:0100450004B6
:0100460007B2
:0100470007B1
:0100480007B0
:0100490007AF
:01004A0006AF
:01004B0006AE
:01004C0004AF
:01004D0004AE
:01004E0004AD
:01004F0004AC
:0100500006A9
:0100510006A8
:0100520006A7
:0100530006A6
:0100540006A5
:0100550006A4
:0100560004A5
:0100570004A4
:0100580004A3
:0100590004A2
:01005A00069F
:01005B00069E
:01005C00079C
:01005D00079B
:01005E00079A
:01005F000799
:010060000798
:010061000797
:010062000796
:010063000795
:010064000497
:010065000496
:010066000792
:010067000791
:010068000790
:01006900078F
:01006A00068F
:01006B00068E
:01006C00048F
:01006D00048E
:01006E00048D
:01006F00048C
:010070000689
:010071000688
:010072000687
:010073000686
:010074000685
:010075000684
:010076000485
:010077000484
:010078000483
:010079000482
:01007A00067F
:01007B00067E
:01007C00077C
:01007D00077B
:01007E00077A
:01007F000779
:010080000778
:010081000777
:010082000776
:010083000775
:010084000477
:010085000476
:010086000772
:010087000771
:010088000770
:01008900076F
:01008A000471
:01008B000470
:01008C00046F
:01008D00046E
:01008E00046D
:01008F00046C
:01009000006F
:01009100006E
:01009200006D
:01009300006C
:01009400006B
:01009500006A
:010096000465
:010097000464
:010098000463
:010099000462
:01009A000461
:01009B000460
:01009C00075C
:01009D00075B
:01009E00075A
:01009F000759
:0100A0000758
:0100A1000757
:0100A2000756
:0100A3000755
:0100A4000457
:0100A5000456
:0100A6000752
:0100A7000751
:0100A8000750
:0100A900074F
:0100AA000451
:0100AB000450
:0100AC00044F
:0100AD00044E
:0100AE00044D
:0100AF00044C
:0100B000004F
:0100B100004E
:0100B200004D
:0100B300004C
:0100B400004B
:0100B500004A
:0100B6000445
:0100B7000444
:0100B8000443
:0100B9000442
:0100BA000441
:0100BB000440
:0100BC00073C
:0100BD00073B
:0100BE00073A
:0100BF000739
:0100C0000738
:0100C1000737
:0100C2000736
:0100C3000735
:0100C4000437
:0100C5000436
:0100C6000732
:0100C7000731
:0100C8000730
:0100C900072F
:0100CA000035
:0100CB000034
:0100CC00042F
:0100CD00042E
:0100CE00042D
:0100CF00042C
:0100D000002F
:0100D100002E
:0100D200002D
:0100D300002C
:0100D400002B
:0100D500002A
:0100D6000425
:0100D7000424
:0100D8000423
:0100D9000422
:0100DA000025
:0100DB000024
:0100DC00071C
:0100DD00071B
:0100DE00071A
:0100DF000719
:0100E0000718
:0100E1000717
:0100E2000716
:0100E3000715
:0100E4000417
:0100E5000416
:0100E6000712
:0100E7000711
:0100E8000710
:0100E900070F
:0100EA000015
:0100EB000014
:0100EC00040F
:0100ED00040E
:0100EE00040D
:0100EF00040C
:0100F000000F
:0100F100000E
:0100F200000D
:0100F300000C
:0100F400000B
:0100F500000A
:0100F6000405
:0100F7000404
:0100F8000403
:0100F9000402
:0100FA000005
:0100FB000004
:0100FC0007FC
:0100FD0007FB
:0100FE0007FA
:0100FF0007F9
:0101000007F7
:0101010007F6
:0101020007F5
:0101030007F4
:0101040004F6
:0101050004F5
:0101060007F1
:0101070007F0
:0101080004F2
:0101090004F1
:01010A0004F0
:01010B0004EF
:01010C0004EE
:01010D0004ED
:01010E0000F0
:01010F0000EF
:0101100004EA
:0101110004E9
:0101120004E8
:0101130004E7
:0101140004E6
:0101150004E5
:0101160000E8
:0101170000E7
:0101180004E2
:0101190004E1
:01011A0004E0
:01011B0004DF
:01011C0007DB
:01011D0007DA
:01011E0007D9
:01011F0007D8
:0101200007D7
:0101210007D6
:0101220007D5
:0101230007D4
:0101240004D6
:0101250004D5
:0101260007D1
:0101270007D0
:0101280004D2
:0101290004D1
:01012A0004D0
:01012B0004CF
:01012C0004CE
:01012D0004CD
:01012E0000D0
:01012F0000CF
:0101300004CA
:0101310004C9
:0101320004C8
:0101330004C7
:0101340004C6
:0101350004C5
:0101360000C8
:0101370000C7
:0101380004C2
:0101390004C1
:01013A0004C0
:01013B0004BF
:01013C0007BB
:01013D0007BA
:01013E0007B9
:01013F0007B8
:0101400007B7
:0101410007B6
:0101420007B5
:0101430007B4
:0101440004B6
:0101450004B5
:0101460007B1
:0101470007B0
:0101480004B2
:0101490004B1
:01014A0004B0
:01014B0004AF
:01014C0004AE
:01014D0004AD
:01014E0000B0
:01014F0000AF
:0101500004AA
:0101510004A9
:0101520004A8
:0101530004A7
:0101540004A6
:0101550004A5
:0101560000A8
:0101570000A7
:0101580004A2
:0101590004A1
:01015A0004A0
:01015B00049F
:01015C00079B
:01015D00079A
:01015E000799
:01015F000798
:010160000797
:010161000796
:010162000795
:010163000794
:010164000496
:010165000495
:010166000791
:010167000790
:010168000492
:010169000491
:01016A000490
:01016B00048F
:01016C00048E
:01016D00048D
:01016E000090
:01016F00008F
:01017000048A
:010171000489
:010172000488
:010173000487
:010174000486
:010175000485
:010176000088
:010177000087
:010178000482
:010179000481
:01017A000480
:01017B00047F
:01017C00077B
:01017D00077A
:01017E000779
:01017F000778
:010180000777
:010181000776
:010182000775
:010183000774
:010184000476
:010185000475
:010186000771
:010187000770
:01018800076F
:01018900076E
:01018A000074
:01018B000073
:01018C00046E
:01018D00046D
:01018E00046C
:01018F00046B
:01019000046A
:010191000469
:010192000468
:010193000467
:010194000466
:010195000465
:010196000464
:010197000463
:010198000462
:010199000461
:01019A000064
:01019B000063
:01019C00075B
:01019D00075A
:01019E000759
:01019F000758
:0101A0000757
:0101A1000756
:0101A2000755
:0101A3000754
:0101A4000456
:0101A5000455
:0101A6000751
:0101A7000750
:0101A800074F
:0101A900074E
:0101AA000054
:0101AB000053
:0101AC00044E
:0101AD00044D
:0101AE00044C
:0101AF00044B
:0101B000044A
:0101B1000449
:0101B2000448
:0101B3000447
:0101B4000446
:0101B5000445
:0101B6000444
:0101B7000443
:0101B8000442
:0101B9000441
:0101BA000044
:0101BB000043
:0101BC00073B
:0101BD00073A
:0101BE000739
:0101BF000738
:0101C0000737
:0101C1000736
:0101C2000735
:0101C3000734
:0101C400003A
:0101C5000039
:0101C6000731
:0101C7000730
:0101C800072F
:0101C900072E
:0101CA00072D
:0101CB00072C
:0101CC000032
:0101CD000031
:0101CE000030
:0101CF00002F
:0101D000002E
:0101D100002D
:0101D200002C
:0101D300002B
:0101D400002A
:0101D5000029
:0101D6000028
:0101D7000027
:0101D800071F
:0101D900071E
:0101DA00071D
:0101DB00071C
:0101DC00071B
:0101DD00071A
:0101DE000719
:0101DF000718
:0101E0000717
:0101E1000716
:0101E2000715
:0101E3000714
:0101E400001A
:0101E5000019
:0101E6000711
:0101E7000710
:0101E800070F
:0101E900070E
:0101EA00070D
:0101EB00070C
:0101EC000012
:0101ED000011
:0101EE000010
:0101EF00000F
:0101F000000E
:0101F100000D
:0101F200000C
:0101F300000B
:0101F400000A
:0101F5000009
:0101F6000008
:0101F7000007
:0101F80007FF
:0101F90007FE
:0101FA0007FD
:0101FB0007FC
:0101FC0007FB
:0101FD0007FA
:0101FE0007F9
:0101FF0007F8
:0102000007F6
:0102010007F5
:0102020007F4
:0102030007F3
:0102040000F9
:0102050000F8
:0102060007F0
:0102070007EF
:0102080007EE
:0102090007ED
:01020A0007EC
:01020B0007EB
:01020C0000F1
:01020D0000F0
:01020E0000EF
:01020F0000EE
:0102100000ED
:0102110000EC
:0102120000EB
:0102130000EA
:0102140000E9
:0102150000E8
:0102160000E7
:0102170000E6
:0102180007DE
:0102190007DD
:01021A0007DC
:01021B0007DB
:01021C0007DA
:01021D0007D9
:01021E0007D8
:01021F0007D7
:0102200007D6
:0102210007D5
:0102220007D4
:0102230007D3
:0102240000D9
:0102250000D8
:0102260007D0
:0102270007CF
:0102280007CE
:0102290007CD
:01022A0007CC
:01022B0007CB
:01022C0000D1
:01022D0000D0
:01022E0000CF
:01022F0000CE
:0102300000CD
:0102310000CC
:0102320000CB
:0102330000CA
:0102340000C9
:0102350000C8
:0102360000C7
:0102370000C6
:0102380007BE
:0102390007BD
:01023A0007BC
:01023B0007BB
:01023C0007BA
:01023D0007B9
:01023E0007B8
:01023F0007B7
:0102400007B6
:0102410007B5
:0102420007B4
:0102430007B3
:0102440006B3
:0102450006B2
:0102460000B7
:0102470000B6
:0102480000B5
:0102490000B4
:01024A0000B3
:01024B0000B2
:01024C0000B1
:01024D0000B0
:01024E0000AF
:01024F0000AE
:0102500000AD
:0102510000AC
:0102520000AB
:0102530000AA
:0102540000A9
:0102550000A8
:0102560000A7
:0102570000A6
:01025800079E
:01025900079D
:01025A00079C
:01025B00079B
:01025C00079A
:01025D000799
:01025E000798
:01025F000797
:010260000796
:010261000795
:010262000794
:010263000793
:010264000693
:010265000692
:010266000097
:010267000096
:010268000095
:010269000094
:01026A000093
:01026B000092
:01026C000091
:01026D000090
:01026E00008F
:01026F00008E
:01027000008D
:01027100008C
:01027200008B
:01027300008A
:010274000089
:010275000088
:010276000087
:010277000086
:01027800077E
:01027900077D
:01027A00077C
:01027B00077B
:01027C00077A
:01027D000779
:01027E000778
:01027F000777
:010280000776
:010281000775
:010282000774
:010283000773
:010284000079
:010285000078
:010286000770
:01028700076F
:01028800076E
:01028900076D
:01028A00076C
:01028B00076B
:01028C000071
:01028D000070
:01028E00006F
:01028F00006E
:01029000006D
:01029100006C
:01029200006B
:01029300006A
:010294000069
:010295000068
:010296000067
:010297000066
:01029800075E
:01029900075D
:01029A00075C
:01029B00075B
:01029C00075A
:01029D000759
:01029E000758
:01029F000757
:0102A0000756
:0102A1000755
:0102A2000754
:0102A3000753
:0102A4000059
:0102A5000058
:0102A6000750
:0102A700074F
:0102A800074E
:0102A900074D
:0102AA00074C
:0102AB00074B
:0102AC000051
:0102AD000050
:0102AE00004F
:0102AF00004E
:0102B000004D
:0102B100004C
:0102B200004B
:0102B300004A
:0102B4000049
:0102B5000048
:0102B6000047
:0102B7000046
:0102B800073E
:0102B900073D
:0102BA00073C
:0102BB00073B
:0102BC00073A
:0102BD000739
:0102BE000738
:0102BF000737
:0102C0000736
:0102C1000735
:0102C2000734
:0102C3000733
:0102C4000435
:0102C5000434
:0102C6000730
:0102C700072F
:0102C800072E
:0102C900072D
:0102CA00072C
:0102CB00072B
:0102CC00022F
:0102CD00022E
:0102CE00022D
:0102CF00022C
:0102D000022B
:0102D100022A
:0102D2000229
:0102D3000228
:0102D4000227
:0102D5000226
:0102D6000027
:0102D7000026
:0102D800071E
:0102D900071D
:0102DA00071C
:0102DB00071B
:0102DC00071A
:0102DD000719
:0102DE000718
:0102DF000717
:0102E0000716
:0102E1000715
:0102E2000714
:0102E3000713
:0102E4000415
:0102E5000414
:0102E6000710
:0102E700070F
:0102E800070E
:0102E900070D
:0102EA00070C
:0102EB00070B
:0102EC00020F
:0102ED00020E
:0102EE00020D
:0102EF00020C
:0102F000020B
:0102F100020A
:0102F2000209
:0102F3000208
:0102F4000207
:0102F5000206
:0102F6000007
:0102F7000006
:0102F80007FE
:0102F90007FD
:0102FA0007FC
:0102FB0007FB
:0102FC0007FA
:0102FD0007F9
:0102FE0007F8
:0102FF0007F7
:0103000007F5
:0103010007F4
:0103020007F3
:0103030007F2
:0103040004F4
:0103050004F3
:0103060007EF
:0103070007EE
:0103080007ED
:0103090007EC
:01030A0007EB
:01030B0007EA
:01030C0000F0
:01030D0000EF
:01030E0000EE
:01030F0000ED
:0103100000EC
:0103110000EB
:0103120000EA
:0103130000E9
:0103140000E8
:0103150000E7
:0103160000E6
:0103170000E5
:0103180007DD
:0103190007DC
:01031A0007DB
:01031B0007DA
:01031C0007D9
:01031D0007D8
:01031E0007D7
:01031F0007D6
:0103200007D5
:0103210007D4
:0103220007D3
:0103230007D2
:0103240004D4
:0103250004D3
:0103260007CF
:0103270007CE
:0103280007CD
:0103290007CC
:01032A0007CB
:01032B0007CA
:01032C0000D0
:01032D0000CF
:01032E0000CE
:01032F0000CD
:0103300000CC
:0103310000CB
:0103320000CA
:0103330000C9
:0103340000C8
:0103350000C7
:0103360000C6
:0103370000C5
:0103380007BD
:0103390007BC
:01033A0007BB
:01033B0007BA
:01033C0007B9
:01033D0007B8
:01033E0007B7
:01033F0007B6
:0103400007B5
:0103410007B4
:0103420007B3
:0103430007B2
:0103440004B4
:0103450004B3
:0103460007AF
:0103470007AE
:0103480007AD
:0103490007AC
:01034A0007AB
:01034B0007AA
:01034C0000B0
:01034D0000AF
:01034E0000AE
:01034F0000AD
:0103500000AC
:0103510000AB
:0103520000AA
:0103530000A9
:0103540000A8
:0103550000A7
:0103560000A6
:0103570000A5
:01035800079D
:01035900079C
:01035A00079B
:01035B00079A
:01035C000799
:01035D000798
:01035E000797
:01035F000796
:010360000795
:010361000794
:010362000793
:010363000792
:010364000494
:010365000493
:01036600078F
:01036700078E
:01036800078D
:01036900078C
:01036A00078B
:01036B00078A
:01036C000090
:01036D00008F
:01036E00008E
:01036F00008D
:01037000008C
:01037100008B
:01037200008A
:010373000089
:010374000088
:010375000087
:010376000086
:010377000085
:01037800077D
:01037900077C
:01037A00077B
:01037B00077A
:01037C000779
:01037D000778
:01037E000777
:01037F000776
:010380000775
:010381000774
:010382000773
:010383000772
:010384000474
:010385000473
:01038600076F
:01038700076E
:01038800076D
:01038900076C
:01038A00076B
:01038B00076A
:01038C000769
:01038D000768
:01038E00006E
:01038F00006D
:010390000765
:010391000764
:010392000763
:010393000762
:010394000068
:010395000067
:01039600075F
:01039700075E
:01039800075D
:01039900075C
:01039A00075B
:01039B00075A
:01039C000759
:01039D000758
:01039E000757
:01039F000756
:0103A0000755
:0103A1000754
:0103A2000753
:0103A3000752
:0103A4000454
:0103A5000453
:0103A600074F
:0103A700074E
:0103A800074D
:0103A900074C
:0103AA00074B
:0103AB00074A
:0103AC000749
:0103AD000748
:0103AE00004E
:0103AF00004D
:0103B0000745
:0103B1000744
:0103B2000743
:0103B3000742
:0103B4000048
:0103B5000047
:0103B600073F
:0103B700073E
:0103B800073D
:0103B900073C
:0103BA00073B
:0103BB00073A
:0103BC000739
:0103BD000738
:0103BE000737
:0103BF000736
:0103C0000735
:0103C1000734
:0103C2000733
:0103C3000732
:0103C4000434
:0103C5000433
:0103C600072F
:0103C700072E
:0103C800072D
:0103C900072C
:0103CA00072B
:0103CB00072A
:0103CC000729
:0103CD000728
:0103CE00002E
:0103CF00002D
:0103D0000725
:0103D1000724
:0103D2000723
:0103D3000722
:0103D4000028
:0103D5000027
:0103D600071F
:0103D700071E
:0103D800071D
:0103D900071C
:0103DA00071B
:0103DB00071A
:0103DC000719
:0103DD000718
:0103DE000717
:0103DF000716
:0103E0000715
:0103E1000714
:0103E2000713
:0103E3000712
:0103E4000414
:0103E5000413
:0103E600070F
:0103E700070E
:0103E800070D
:0103E900070C
:0103EA00070B
:0103EB00070A
:0103EC000709
:0103ED000708
:0103EE00000E
:0103EF00000D
:0103F0000705
:0103F1000704
:0103F2000703
:0103F3000702
:0103F4000008
:0103F5000007
:0103F60007FF
:0103F70007FE
:0103F80007FD
:0103F90007FC
:0103FA0007FB
:0103FB0007FA
:0103FC0007F9
:0103FD0007F8
:0103FE0007F7
:0103FF0007F6
:00000001FF
