:0100000000FF
:0100010000FE
:0100020000FD
:0100030000FC
:0100040006F5
:0100050006F4
:0100060006F3
:0100070006F2
:0100080006F1
:0100090006F0
:01000A0006EF
:01000B0006EE
:01000C0006ED
:01000D0006EC
:01000E0006EB
:01000F0006EA
:0100100006E9
:0100110006E8
:0100120006E7
:0100130006E6
:0100140000EB
:0100150000EA
:0100160000E9
:0100170000E8
:0100180000E7
:0100190000E6
:01001A0000E5
:01001B0000E4
:01001C0000E3
:01001D0000E2
:01001E0000E1
:01001F0000E0
:0100200000DF
:0100210000DE
:0100220000DD
:0100230000DC
:0100240006D5
:0100250006D4
:0100260006D3
:0100270006D2
:0100280006D1
:0100290006D0
:01002A0006CF
:01002B0006CE
:01002C0006CD
:01002D0006CC
:01002E0006CB
:01002F0006CA
:0100300006C9
:0100310006C8
:0100320006C7
:0100330006C6
:0100340000CB
:0100350000CA
:0100360000C9
:0100370000C8
:0100380000C7
:0100390000C6
:01003A0000C5
:01003B0000C4
:01003C0000C3
:01003D0000C2
:01003E0000C1
:01003F0000C0
:0100400000BF
:0100410000BE
:0100420000BD
:0100430000BC
:0100440006B5
:0100450006B4
:0100460006B3
:0100470006B2
:0100480006B1
:0100490006B0
:01004A0006AF
:01004B0006AE
:01004C0006AD
:01004D0006AC
:01004E0006AB
:01004F0006AA
:0100500006A9
:0100510006A8
:0100520006A7
:0100530006A6
:0100540000AB
:0100550000AA
:0100560000A9
:0100570000A8
:0100580000A7
:0100590000A6
:01005A0000A5
:01005B0000A4
:01005C0000A3
:01005D0000A2
:01005E0000A1
:01005F0000A0
:01006000009F
:01006100009E
:01006200009D
:01006300009C
:010064000695
:010065000694
:010066000693
:010067000692
:010068000691
:010069000690
:01006A00068F
:01006B00068E
:01006C00068D
:01006D00068C
:01006E00068B
:01006F00068A
:010070000689
:010071000688
:010072000687
:010073000686
:01007400008B
:01007500008A
:010076000089
:010077000088
:010078000087
:010079000086
:01007A000085
:01007B000084
:01007C000083
:01007D000082
:01007E000081
:01007F000080
:01008000007F
:01008100007E
:01008200007D
:01008300007C
:01008400007B
:01008500007A
:010086000079
:010087000078
:010088000671
:010089000670
:01008A00066F
:01008B00066E
:01008C00066D
:01008D00066C
:01008E00066B
:01008F00066A
:010090000669
:010091000668
:010092000667
:010093000666
:010094000665
:010095000664
:010096000663
:010097000662
:010098000067
:010099000066
:01009A000065
:01009B000064
:01009C000063
:01009D000062
:01009E000061
:01009F000060
:0100A000005F
:0100A100005E
:0100A200005D
:0100A300005C
:0100A400005B
:0100A500005A
:0100A6000059
:0100A7000058
:0100A8000651
:0100A9000650
:0100AA00064F
:0100AB00064E
:0100AC00064D
:0100AD00064C
:0100AE00064B
:0100AF00064A
:0100B0000649
:0100B1000648
:0100B2000647
:0100B3000646
:0100B4000645
:0100B5000644
:0100B6000643
:0100B7000642
:0100B8000047
:0100B9000046
:0100BA000045
:0100BB000044
:0100BC000043
:0100BD000042
:0100BE000041
:0100BF000040
:0100C000003F
:0100C100003E
:0100C200003D
:0100C300003C
:0100C400003B
:0100C500003A
:0100C6000039
:0100C7000038
:0100C8000631
:0100C9000630
:0100CA00062F
:0100CB00062E
:0100CC00062D
:0100CD00062C
:0100CE00062B
:0100CF00062A
:0100D0000629
:0100D1000628
:0100D2000627
:0100D3000626
:0100D4000625
:0100D5000624
:0100D6000623
:0100D7000622
:0100D8000027
:0100D9000026
:0100DA000025
:0100DB000024
:0100DC000023
:0100DD000022
:0100DE000021
:0100DF000020
:0100E000001F
:0100E100001E
:0100E200001D
:0100E300001C
:0100E400001B
:0100E500001A
:0100E6000019
:0100E7000018
:0100E8000611
:0100E9000610
:0100EA00060F
:0100EB00060E
:0100EC00060D
:0100ED00060C
:0100EE00060B
:0100EF00060A
:0100F0000609
:0100F1000608
:0100F2000607
:0100F3000606
:0100F4000605
:0100F5000604
:0100F6000603
:0100F7000602
:0100F8000007
:0100F9000006
:0100FA000005
:0100FB000004
:0100FC000003
:0100FD000002
:0100FE000001
:0100FF000000
:0101000000FE
:0101010000FD
:0101020000FC
:0101030000FB
:0101040000FA
:0101050000F9
:0101060000F8
:0101070000F7
:0101080006F0
:0101090006EF
:01010A0006EE
:01010B0006ED
:01010C0003EF
:01010D0003EE
:01010E0003ED
:01010F0003EC
:0101100006E8
:0101110006E7
:0101120006E6
:0101130006E5
:0101140003E7
:0101150003E6
:0101160003E5
:0101170003E4
:0101180000E6
:0101190000E5
:01011A0000E4
:01011B0000E3
:01011C0000E2
:01011D0000E1
:01011E0000E0
:01011F0000DF
:0101200000DE
:0101210000DD
:0101220000DC
:0101230000DB
:0101240000DA
:0101250000D9
:0101260000D8
:0101270000D7
:0101280006D0
:0101290006CF
:01012A0006CE
:01012B0006CD
:01012C0003CF
:01012D0003CE
:01012E0003CD
:01012F0003CC
:0101300006C8
:0101310006C7
:0101320006C6
:0101330006C5
:0101340003C7
:0101350003C6
:0101360003C5
:0101370003C4
:0101380000C6
:0101390000C5
:01013A0000C4
:01013B0000C3
:01013C0000C2
:01013D0000C1
:01013E0000C0
:01013F0000BF
:0101400000BE
:0101410000BD
:0101420000BC
:0101430000BB
:0101440000BA
:0101450000B9
:0101460000B8
:0101470000B7
:0101480006B0
:0101490006AF
:01014A0006AE
:01014B0006AD
:01014C0003AF
:01014D0003AE
:01014E0003AD
:01014F0003AC
:0101500006A8
:0101510006A7
:0101520006A6
:0101530006A5
:0101540003A7
:0101550003A6
:0101560003A5
:0101570003A4
:0101580000A6
:0101590000A5
:01015A0000A4
:01015B0000A3
:01015C0000A2
:01015D0000A1
:01015E0000A0
:01015F00009F
:01016000009E
:01016100009D
:01016200009C
:01016300009B
:01016400009A
:010165000099
:010166000098
:010167000097
:010168000690
:01016900068F
:01016A00068E
:01016B00068D
:01016C00038F
:01016D00038E
:01016E00038D
:01016F00038C
:010170000688
:010171000687
:010172000686
:010173000685
:010174000387
:010175000386
:010176000385
:010177000384
:010178000086
:010179000085
:01017A000084
:01017B000083
:01017C000082
:01017D000081
:01017E000080
:01017F00007F
:01018000007E
:01018100007D
:01018200007C
:01018300007B
:01018400007A
:010185000079
:010186000078
:010187000077
:010188000670
:01018900066F
:01018A00066E
:01018B00066D
:01018C00066C
:01018D00066B
:01018E00066A
:01018F000669
:01019000006E
:01019100006D
:01019200006C
:01019300006B
:010194000664
:010195000663
:010196000662
:010197000661
:010198000066
:010199000065
:01019A000064
:01019B000063
:01019C000062
:01019D000061
:01019E000060
:01019F00005F
:0101A000005E
:0101A100005D
:0101A200005C
:0101A300005B
:0101A400005A
:0101A5000059
:0101A6000058
:0101A7000057
:0101A8000650
:0101A900064F
:0101AA00064E
:0101AB00064D
:0101AC00064C
:0101AD00064B
:0101AE00064A
:0101AF000649
:0101B000004E
:0101B1000449
:0101B2000448
:0101B300004B
:0101B4000644
:0101B5000643
:0101B6000642
:0101B7000641
:0101B8000046
:0101B9000045
:0101BA000044
:0101BB000043
:0101BC000042
:0101BD000041
:0101BE000040
:0101BF00003F
:0101C000003E
:0101C100003D
:0101C200003C
:0101C300003B
:0101C400003A
:0101C5000039
:0101C6000038
:0101C7000037
:0101C8000630
:0101C900062F
:0101CA00062E
:0101CB00062D
:0101CC00062C
:0101CD00062B
:0101CE00062A
:0101CF000629
:0101D000002E
:0101D1000429
:0101D2000428
:0101D300002B
:0101D4000624
:0101D5000623
:0101D6000622
:0101D7000621
:0101D8000026
:0101D9000025
:0101DA000024
:0101DB000023
:0101DC000022
:0101DD000021
:0101DE000020
:0101DF00001F
:0101E000001E
:0101E100001D
:0101E200001C
:0101E300001B
:0101E400001A
:0101E5000019
:0101E6000018
:0101E7000017
:0101E8000610
:0101E900060F
:0101EA00060E
:0101EB00060D
:0101EC00060C
:0101ED00060B
:0101EE00060A
:0101EF000609
:0101F000000E
:0101F100000D
:0101F200000C
:0101F300000B
:0101F4000604
:0101F5000603
:0101F6000602
:0101F7000601
:0101F8000006
:0101F9000005
:0101FA000004
:0101FB000003
:0101FC000002
:0101FD000001
:0101FE000000
:0101FF0000FF
:0102000006F7
:0102010006F6
:0102020006F5
:0102030006F4
:0102040006F3
:0102050006F2
:0102060006F1
:0102070006F0
:0102080006EF
:0102090006EE
:01020A0006ED
:01020B0006EC
:01020C0006EB
:01020D0006EA
:01020E0006E9
:01020F0006E8
:0102100006E7
:0102110006E6
:0102120006E5
:0102130006E4
:0102140006E3
:0102150006E2
:0102160006E1
:0102170006E0
:0102180006DF
:0102190006DE
:01021A0006DD
:01021B0006DC
:01021C0006DB
:01021D0006DA
:01021E0006D9
:01021F0006D8
:0102200006D7
:0102210006D6
:0102220006D5
:0102230006D4
:0102240006D3
:0102250006D2
:0102260006D1
:0102270006D0
:0102280006CF
:0102290006CE
:01022A0006CD
:01022B0006CC
:01022C0006CB
:01022D0006CA
:01022E0006C9
:01022F0006C8
:0102300006C7
:0102310006C6
:0102320006C5
:0102330006C4
:0102340006C3
:0102350006C2
:0102360006C1
:0102370006C0
:0102380006BF
:0102390006BE
:01023A0006BD
:01023B0006BC
:01023C0006BB
:01023D0006BA
:01023E0006B9
:01023F0006B8
:0102400006B7
:0102410006B6
:0102420006B5
:0102430006B4
:0102440006B3
:0102450006B2
:0102460006B1
:0102470006B0
:0102480006AF
:0102490006AE
:01024A0006AD
:01024B0006AC
:01024C0006AB
:01024D0006AA
:01024E0006A9
:01024F0006A8
:0102500006A7
:0102510006A6
:0102520006A5
:0102530006A4
:0102540006A3
:0102550006A2
:0102560006A1
:0102570006A0
:01025800069F
:01025900069E
:01025A00069D
:01025B00069C
:01025C00069B
:01025D00069A
:01025E000699
:01025F000698
:010260000697
:010261000696
:010262000695
:010263000694
:010264000693
:010265000692
:010266000691
:010267000690
:01026800068F
:01026900068E
:01026A00068D
:01026B00068C
:01026C00068B
:01026D00068A
:01026E000689
:01026F000688
:010270000687
:010271000686
:010272000685
:010273000684
:010274000683
:010275000682
:010276000681
:010277000680
:01027800067F
:01027900067E
:01027A00067D
:01027B00067C
:01027C00067B
:01027D00067A
:01027E000679
:01027F000678
:01028000007D
:01028100007C
:01028200007B
:01028300007A
:010284000079
:010285000078
:010286000077
:010287000076
:01028800066F
:01028900066E
:01028A00066D
:01028B00066C
:01028C00066B
:01028D00066A
:01028E000669
:01028F000668
:010290000667
:010291000666
:010292000665
:010293000664
:010294000663
:010295000662
:010296000661
:010297000660
:010298000065
:010299000064
:01029A000063
:01029B000062
:01029C000061
:01029D000060
:01029E00005F
:01029F00005E
:0102A000005D
:0102A100005C
:0102A200005B
:0102A300005A
:0102A4000059
:0102A5000058
:0102A6000057
:0102A7000056
:0102A800064F
:0102A900064E
:0102AA00064D
:0102AB00064C
:0102AC00064B
:0102AD00064A
:0102AE000649
:0102AF000648
:0102B0000647
:0102B1000646
:0102B2000645
:0102B3000644
:0102B4000643
:0102B5000642
:0102B6000641
:0102B7000640
:0102B8000045
:0102B9000044
:0102BA000043
:0102BB000042
:0102BC000041
:0102BD000040
:0102BE00003F
:0102BF00003E
:0102C000003D
:0102C100003C
:0102C200003B
:0102C300003A
:0102C4000039
:0102C5000038
:0102C6000037
:0102C7000036
:0102C800062F
:0102C900062E
:0102CA00062D
:0102CB00062C
:0102CC00062B
:0102CD00062A
:0102CE000629
:0102CF000628
:0102D0000627
:0102D1000626
:0102D2000625
:0102D3000624
:0102D4000623
:0102D5000622
:0102D6000621
:0102D7000620
:0102D8000025
:0102D9000024
:0102DA000023
:0102DB000022
:0102DC000021
:0102DD000020
:0102DE00001F
:0102DF00001E
:0102E000001D
:0102E100001C
:0102E200001B
:0102E300001A
:0102E4000019
:0102E5000018
:0102E6000017
:0102E7000016
:0102E800060F
:0102E900060E
:0102EA00060D
:0102EB00060C
:0102EC00060B
:0102ED00060A
:0102EE000609
:0102EF000608
:0102F0000607
:0102F1000606
:0102F2000605
:0102F3000604
:0102F4000603
:0102F5000602
:0102F6000601
:0102F7000600
:0102F8000005
:0102F9000004
:0102FA000003
:0102FB000002
:0102FC000001
:0102FD000000
:0102FE0000FF
:0102FF0000FE
:0103000000FC
:0103010000FB
:0103020000FA
:0103030000F9
:0103040000F8
:0103050000F7
:0103060000F6
:0103070000F5
:0103080006EE
:0103090000F3
:01030A0000F2
:01030B0000F1
:01030C0000F0
:01030D0000EF
:01030E0000EE
:01030F0000ED
:0103100000EC
:0103110000EB
:0103120000EA
:0103130000E9
:0103140000E8
:0103150000E7
:0103160000E6
:0103170006DF
:0103180000E4
:0103190000E3
:01031A0000E2
:01031B0000E1
:01031C0000E0
:01031D0000DF
:01031E0000DE
:01031F0000DD
:0103200000DC
:0103210000DB
:0103220000DA
:0103230000D9
:0103240000D8
:0103250000D7
:0103260000D6
:0103270000D5
:0103280006CE
:0103290006CD
:01032A0006CC
:01032B0006CB
:01032C0006CA
:01032D0006C9
:01032E0006C8
:01032F0006C7
:0103300006C6
:0103310006C5
:0103320006C4
:0103330006C3
:0103340006C2
:0103350006C1
:0103360006C0
:0103370006BF
:0103380000C4
:0103390000C3
:01033A0000C2
:01033B0000C1
:01033C0000C0
:01033D0000BF
:01033E0000BE
:01033F0000BD
:0103400000BC
:0103410000BB
:0103420000BA
:0103430000B9
:0103440000B8
:0103450000B7
:0103460000B6
:0103470000B5
:0103480006AE
:0103490006AD
:01034A0006AC
:01034B0006AB
:01034C0006AA
:01034D0006A9
:01034E0006A8
:01034F0006A7
:0103500006A6
:0103510006A5
:0103520006A4
:0103530006A3
:0103540006A2
:0103550006A1
:0103560006A0
:01035700069F
:0103580000A4
:0103590000A3
:01035A0000A2
:01035B0000A1
:01035C0000A0
:01035D00009F
:01035E00009E
:01035F00009D
:01036000009C
:01036100009B
:01036200009A
:010363000099
:010364000098
:010365000097
:010366000096
:010367000095
:01036800068E
:01036900068D
:01036A00068C
:01036B00068B
:01036C00068A
:01036D000689
:01036E000688
:01036F000687
:010370000686
:010371000685
:010372000684
:010373000683
:010374000682
:010375000681
:010376000680
:01037700067F
:010378000084
:010379000083
:01037A000082
:01037B000081
:01037C000080
:01037D00007F
:01037E00007E
:01037F00007D
:01038000007C
:01038100007B
:01038200007A
:010383000079
:010384000078
:010385000077
:010386000076
:010387000075
:01038800066E
:01038900066D
:01038A00066C
:01038B00066B
:01038C000070
:01038D00006F
:01038E00006E
:01038F00006D
:01039000006C
:01039100006B
:01039200006A
:010393000069
:010394000662
:010395000661
:010396000660
:01039700065F
:010398000064
:010399000063
:01039A000062
:01039B000061
:01039C000060
:01039D00005F
:01039E00005E
:01039F00005D
:0103A000005C
:0103A100005B
:0103A200005A
:0103A3000059
:0103A4000058
:0103A5000057
:0103A6000056
:0103A7000055
:0103A800064E
:0103A900064D
:0103AA00064C
:0103AB00064B
:0103AC000050
:0103AD00004F
:0103AE00004E
:0103AF00004D
:0103B000004C
:0103B100004B
:0103B200004A
:0103B3000049
:0103B4000642
:0103B5000641
:0103B6000640
:0103B700063F
:0103B8000044
:0103B9000043
:0103BA000042
:0103BB000041
:0103BC000040
:0103BD00003F
:0103BE00003E
:0103BF00003D
:0103C000003C
:0103C100003B
:0103C200003A
:0103C3000039
:0103C4000038
:0103C5000037
:0103C6000036
:0103C7000035
:0103C800062E
:0103C900062D
:0103CA00062C
:0103CB00062B
:0103CC000030
:0103CD00002F
:0103CE00002E
:0103CF00002D
:0103D000002C
:0103D100002B
:0103D200002A
:0103D3000029
:0103D4000622
:0103D5000621
:0103D6000620
:0103D700061F
:0103D8000024
:0103D9000023
:0103DA000022
:0103DB000021
:0103DC000020
:0103DD00001F
:0103DE00001E
:0103DF00001D
:0103E000001C
:0103E100001B
:0103E200001A
:0103E3000019
:0103E4000018
:0103E5000017
:0103E6000016
:0103E7000015
:0103E800060E
:0103E900060D
:0103EA00060C
:0103EB00060B
:0103EC000010
:0103ED00000F
:0103EE00000E
:0103EF00000D
:0103F000000C
:0103F100000B
:0103F200000A
:0103F3000009
:0103F4000602
:0103F5000601
:0103F6000600
:0103F70006FF
:0103F8000004
:0103F9000003
:0103FA000002
:0103FB000001
:0103FC000000
:0103FD0000FF
:0103FE0000FE
:0103FF0000FD
:00000001FF
