:0100000007F8
:0100010007F7
:0100020007F6
:0100030007F5
:0100040007F4
:0100050007F3
:0100060007F2
:0100070007F1
:0100080001F6
:0100090001F5
:01000A0001F4
:01000B0001F3
:01000C0001F2
:01000D0001F1
:01000E0001F0
:01000F0001EF
:0100100001EE
:0100110001ED
:0100120001EC
:0100130001EB
:0100140001EA
:0100150001E9
:0100160001E8
:0100170001E7
:0100180007E0
:0100190007DF
:01001A0007DE
:01001B0007DD
:01001C0007DC
:01001D0007DB
:01001E0007DA
:01001F0007D9
:0100200007D8
:0100210007D7
:0100220007D6
:0100230007D5
:0100240007D4
:0100250007D3
:0100260007D2
:0100270007D1
:0100280001D6
:0100290001D5
:01002A0001D4
:01002B0001D3
:01002C0001D2
:01002D0001D1
:01002E0001D0
:01002F0001CF
:0100300001CE
:0100310001CD
:0100320001CC
:0100330001CB
:0100340001CA
:0100350001C9
:0100360001C8
:0100370001C7
:0100380007C0
:0100390007BF
:01003A0007BE
:01003B0007BD
:01003C0007BC
:01003D0007BB
:01003E0007BA
:01003F0007B9
:0100400007B8
:0100410007B7
:0100420007B6
:0100430007B5
:0100440007B4
:0100450007B3
:0100460007B2
:0100470007B1
:0100480001B6
:0100490001B5
:01004A0001B4
:01004B0001B3
:01004C0001B2
:01004D0001B1
:01004E0001B0
:01004F0001AF
:0100500001AE
:0100510001AD
:0100520001AC
:0100530001AB
:0100540001AA
:0100550001A9
:0100560001A8
:0100570001A7
:0100580007A0
:01005900079F
:01005A00079E
:01005B00079D
:01005C00079C
:01005D00079B
:01005E00079A
:01005F000799
:010060000798
:010061000797
:010062000796
:010063000795
:010064000794
:010065000793
:010066000792
:010067000791
:010068000196
:010069000195
:01006A000194
:01006B000193
:01006C000192
:01006D000191
:01006E000190
:01006F00018F
:01007000018E
:01007100018D
:01007200018C
:01007300018B
:01007400018A
:010075000189
:010076000188
:010077000187
:010078000780
:01007900077F
:01007A00077E
:01007B00077D
:01007C00077C
:01007D00077B
:01007E00077A
:01007F000779
:010080000778
:010081000777
:010082000776
:010083000775
:010084000279
:010085000278
:010086000277
:010087000276
:010088000770
:01008900076F
:01008A00076E
:01008B00076D
:01008C00076C
:01008D00076B
:01008E00076A
:01008F000769
:010090000768
:010091000767
:010092000766
:010093000765
:010094000764
:010095000763
:010096000762
:010097000761
:010098000265
:010099000264
:01009A000263
:01009B000262
:01009C00075C
:01009D00075B
:01009E00075A
:01009F000759
:0100A0000758
:0100A1000757
:0100A2000756
:0100A3000755
:0100A4000259
:0100A5000258
:0100A6000257
:0100A7000256
:0100A8000750
:0100A900074F
:0100AA00074E
:0100AB00074D
:0100AC00074C
:0100AD00074B
:0100AE00074A
:0100AF000749
:0100B0000748
:0100B1000747
:0100B2000746
:0100B3000745
:0100B4000744
:0100B5000743
:0100B6000742
:0100B7000741
:0100B8000245
:0100B9000244
:0100BA000243
:0100BB000242
:0100BC00073C
:0100BD00073B
:0100BE00073A
:0100BF000739
:0100C0000738
:0100C1000737
:0100C2000736
:0100C3000735
:0100C4000239
:0100C5000238
:0100C6000237
:0100C7000236
:0100C8000730
:0100C900072F
:0100CA00072E
:0100CB00072D
:0100CC00072C
:0100CD00072B
:0100CE00072A
:0100CF000729
:0100D0000728
:0100D1000727
:0100D2000726
:0100D3000725
:0100D4000724
:0100D5000723
:0100D6000722
:0100D7000721
:0100D8000225
:0100D9000224
:0100DA000223
:0100DB000222
:0100DC00071C
:0100DD00071B
:0100DE00071A
:0100DF000719
:0100E0000718
:0100E1000717
:0100E2000716
:0100E3000715
:0100E4000219
:0100E5000218
:0100E6000217
:0100E7000216
:0100E8000710
:0100E900070F
:0100EA00070E
:0100EB00070D
:0100EC00070C
:0100ED00070B
:0100EE00070A
:0100EF000709
:0100F0000708
:0100F1000707
:0100F2000706
:0100F3000705
:0100F4000704
:0100F5000703
:0100F6000702
:0100F7000701
:0100F8000205
:0100F9000204
:0100FA000203
:0100FB000202
:0100FC0007FC
:0100FD0007FB
:0100FE0007FA
:0100FF0007F9
:0101000007F7
:0101010007F6
:0101020007F5
:0101030007F4
:0101040003F7
:0101050003F6
:0101060003F5
:0101070003F4
:0101080007EF
:0101090007EE
:01010A0007ED
:01010B0007EC
:01010C0007EB
:01010D0007EA
:01010E0007E9
:01010F0007E8
:0101100007E7
:0101110007E6
:0101120007E5
:0101130007E4
:0101140007E3
:0101150007E2
:0101160007E1
:0101170007E0
:0101180007DF
:0101190007DE
:01011A0007DD
:01011B0007DC
:01011C0007DB
:01011D0007DA
:01011E0007D9
:01011F0007D8
:0101200007D7
:0101210007D6
:0101220007D5
:0101230007D4
:0101240003D7
:0101250003D6
:0101260003D5
:0101270003D4
:0101280007CF
:0101290007CE
:01012A0007CD
:01012B0007CC
:01012C0007CB
:01012D0007CA
:01012E0007C9
:01012F0007C8
:0101300007C7
:0101310007C6
:0101320007C5
:0101330007C4
:0101340007C3
:0101350007C2
:0101360007C1
:0101370007C0
:0101380007BF
:0101390007BE
:01013A0007BD
:01013B0007BC
:01013C0007BB
:01013D0007BA
:01013E0007B9
:01013F0007B8
:0101400007B7
:0101410007B6
:0101420007B5
:0101430007B4
:0101440003B7
:0101450003B6
:0101460003B5
:0101470003B4
:0101480007AF
:0101490007AE
:01014A0007AD
:01014B0007AC
:01014C0007AB
:01014D0007AA
:01014E0007A9
:01014F0007A8
:0101500007A7
:0101510007A6
:0101520007A5
:0101530007A4
:0101540007A3
:0101550007A2
:0101560007A1
:0101570007A0
:01015800079F
:01015900079E
:01015A00079D
:01015B00079C
:01015C00079B
:01015D00079A
:01015E000799
:01015F000798
:010160000797
:010161000796
:010162000795
:010163000794
:010164000397
:010165000396
:010166000395
:010167000394
:01016800078F
:01016900078E
:01016A00078D
:01016B00078C
:01016C00078B
:01016D00078A
:01016E000789
:01016F000788
:010170000787
:010171000786
:010172000785
:010173000784
:010174000783
:010175000782
:010176000781
:010177000780
:01017800077F
:01017900077E
:01017A00077D
:01017B00077C
:01017C00077B
:01017D00077A
:01017E000779
:01017F000778
:010180000777
:010181000776
:010182000775
:010183000774
:010184000773
:010185000772
:010186000771
:010187000770
:010188000472
:010189000471
:01018A000470
:01018B00046F
:01018C00046E
:01018D00046D
:01018E00046C
:01018F00046B
:01019000046A
:010191000469
:010192000468
:010193000467
:010194000466
:010195000465
:010196000464
:010197000463
:01019800075F
:01019900075E
:01019A00075D
:01019B00075C
:01019C00075B
:01019D00075A
:01019E000759
:01019F000758
:0101A0000757
:0101A1000756
:0101A2000755
:0101A3000754
:0101A4000753
:0101A5000752
:0101A6000751
:0101A7000750
:0101A8000452
:0101A9000451
:0101AA000450
:0101AB00044F
:0101AC00044E
:0101AD00044D
:0101AE00044C
:0101AF00044B
:0101B000044A
:0101B1000449
:0101B2000448
:0101B3000447
:0101B4000446
:0101B5000445
:0101B6000444
:0101B7000443
:0101B800073F
:0101B900073E
:0101BA00073D
:0101BB00073C
:0101BC00073B
:0101BD00073A
:0101BE000739
:0101BF000738
:0101C0000737
:0101C1000736
:0101C2000735
:0101C3000734
:0101C4000733
:0101C5000732
:0101C6000731
:0101C7000730
:0101C8000432
:0101C9000431
:0101CA000430
:0101CB00042F
:0101CC00042E
:0101CD00042D
:0101CE00042C
:0101CF00042B
:0101D000042A
:0101D1000429
:0101D2000428
:0101D3000427
:0101D4000426
:0101D5000425
:0101D6000424
:0101D7000423
:0101D800071F
:0101D900071E
:0101DA00071D
:0101DB00071C
:0101DC00071B
:0101DD00071A
:0101DE000719
:0101DF000718
:0101E0000717
:0101E1000716
:0101E2000715
:0101E3000714
:0101E4000713
:0101E5000712
:0101E6000711
:0101E7000710
:0101E8000412
:0101E9000411
:0101EA000410
:0101EB00040F
:0101EC00040E
:0101ED00040D
:0101EE00040C
:0101EF00040B
:0101F000040A
:0101F1000409
:0101F2000408
:0101F3000407
:0101F4000406
:0101F5000405
:0101F6000404
:0101F7000403
:0101F80007FF
:0101F90007FE
:0101FA0007FD
:0101FB0007FC
:0101FC0007FB
:0101FD0007FA
:0101FE0007F9
:0101FF0007F8
:0102000007F6
:0102010007F5
:0102020007F4
:0102030007F3
:0102040007F2
:0102050007F1
:0102060007F0
:0102070007EF
:0102080007EE
:0102090007ED
:01020A0007EC
:01020B0007EB
:01020C0007EA
:01020D0007E9
:01020E0007E8
:01020F0007E7
:0102100007E6
:0102110007E5
:0102120007E4
:0102130007E3
:0102140007E2
:0102150007E1
:0102160007E0
:0102170007DF
:0102180005E0
:0102190005DF
:01021A0005DE
:01021B0005DD
:01021C0007DA
:01021D0007D9
:01021E0007D8
:01021F0007D7
:0102200007D6
:0102210007D5
:0102220007D4
:0102230007D3
:0102240007D2
:0102250007D1
:0102260007D0
:0102270007CF
:0102280007CE
:0102290007CD
:01022A0007CC
:01022B0007CB
:01022C0007CA
:01022D0007C9
:01022E0007C8
:01022F0007C7
:0102300007C6
:0102310007C5
:0102320007C4
:0102330007C3
:0102340007C2
:0102350007C1
:0102360007C0
:0102370007BF
:0102380005C0
:0102390005BF
:01023A0005BE
:01023B0005BD
:01023C0007BA
:01023D0007B9
:01023E0007B8
:01023F0007B7
:0102400007B6
:0102410007B5
:0102420007B4
:0102430007B3
:0102440007B2
:0102450007B1
:0102460007B0
:0102470007AF
:0102480007AE
:0102490007AD
:01024A0007AC
:01024B0007AB
:01024C0007AA
:01024D0007A9
:01024E0007A8
:01024F0007A7
:0102500007A6
:0102510007A5
:0102520007A4
:0102530007A3
:0102540007A2
:0102550007A1
:0102560007A0
:01025700079F
:0102580005A0
:01025900059F
:01025A00059E
:01025B00059D
:01025C00079A
:01025D000799
:01025E000798
:01025F000797
:010260000796
:010261000795
:010262000794
:010263000793
:010264000792
:010265000791
:010266000790
:01026700078F
:01026800078E
:01026900078D
:01026A00078C
:01026B00078B
:01026C00078A
:01026D000789
:01026E000788
:01026F000787
:010270000786
:010271000785
:010272000784
:010273000783
:010274000782
:010275000781
:010276000780
:01027700077F
:010278000580
:01027900057F
:01027A00057E
:01027B00057D
:01027C00077A
:01027D000779
:01027E000778
:01027F000777
:010280000776
:010281000775
:010282000774
:010283000773
:010284000772
:010285000078
:010286000077
:010287000076
:010288000075
:01028900076D
:01028A00076C
:01028B00076B
:01028C00076A
:01028D000769
:01028E000768
:01028F000767
:010290000766
:010291000765
:010292000764
:010293000763
:010294000762
:010295000761
:010296000760
:01029700075F
:010298000065
:010299000064
:01029A000063
:01029B000062
:01029C00075A
:01029D000759
:01029E000758
:01029F000757
:0102A0000756
:0102A1000755
:0102A2000754
:0102A3000753
:0102A4000752
:0102A5000058
:0102A6000057
:0102A7000056
:0102A8000055
:0102A900074D
:0102AA00074C
:0102AB00074B
:0102AC00074A
:0102AD000749
:0102AE000748
:0102AF000747
:0102B0000746
:0102B1000745
:0102B2000744
:0102B3000743
:0102B4000742
:0102B5000741
:0102B6000740
:0102B700073F
:0102B8000045
:0102B9000044
:0102BA000043
:0102BB000042
:0102BC00073A
:0102BD000739
:0102BE000738
:0102BF000737
:0102C0000736
:0102C1000735
:0102C2000734
:0102C3000733
:0102C4000732
:0102C5000038
:0102C6000037
:0102C7000036
:0102C8000035
:0102C900072D
:0102CA00072C
:0102CB00072B
:0102CC00072A
:0102CD000729
:0102CE000728
:0102CF000727
:0102D0000726
:0102D1000725
:0102D2000724
:0102D3000723
:0102D4000722
:0102D5000721
:0102D6000720
:0102D700071F
:0102D8000025
:0102D9000024
:0102DA000023
:0102DB000022
:0102DC00071A
:0102DD000719
:0102DE000718
:0102DF000717
:0102E0000716
:0102E1000715
:0102E2000714
:0102E3000713
:0102E4000712
:0102E5000018
:0102E6000017
:0102E7000016
:0102E8000015
:0102E900070D
:0102EA00070C
:0102EB00070B
:0102EC00070A
:0102ED000709
:0102EE000708
:0102EF000707
:0102F0000706
:0102F1000705
:0102F2000704
:0102F3000703
:0102F4000702
:0102F5000701
:0102F6000700
:0102F70007FF
:0102F8000005
:0102F9000004
:0102FA000003
:0102FB000002
:0102FC0007FA
:0102FD0007F9
:0102FE0007F8
:0102FF0007F7
:0103000007F5
:0103010007F4
:0103020007F3
:0103030007F2
:0103040007F1
:0103050007F0
:0103060007EF
:0103070007EE
:0103080007ED
:0103090006ED
:01030A0006EC
:01030B0006EB
:01030C0006EA
:01030D0006E9
:01030E0006E8
:01030F0006E7
:0103100006E6
:0103110006E5
:0103120006E4
:0103130006E3
:0103140006E2
:0103150006E1
:0103160006E0
:0103170006DF
:0103180007DD
:0103190007DC
:01031A0007DB
:01031B0007DA
:01031C0007D9
:01031D0007D8
:01031E0007D7
:01031F0007D6
:0103200007D5
:0103210007D4
:0103220007D3
:0103230007D2
:0103240007D1
:0103250007D0
:0103260007CF
:0103270007CE
:0103280007CD
:0103290006CD
:01032A0006CC
:01032B0006CB
:01032C0006CA
:01032D0006C9
:01032E0006C8
:01032F0006C7
:0103300006C6
:0103310006C5
:0103320006C4
:0103330006C3
:0103340006C2
:0103350006C1
:0103360006C0
:0103370006BF
:0103380007BD
:0103390007BC
:01033A0007BB
:01033B0007BA
:01033C0007B9
:01033D0007B8
:01033E0007B7
:01033F0007B6
:0103400007B5
:0103410007B4
:0103420007B3
:0103430007B2
:0103440007B1
:0103450007B0
:0103460007AF
:0103470007AE
:0103480007AD
:0103490006AD
:01034A0006AC
:01034B0006AB
:01034C0006AA
:01034D0006A9
:01034E0006A8
:01034F0006A7
:0103500006A6
:0103510006A5
:0103520006A4
:0103530006A3
:0103540006A2
:0103550006A1
:0103560006A0
:01035700069F
:01035800079D
:01035900079C
:01035A00079B
:01035B00079A
:01035C000799
:01035D000798
:01035E000797
:01035F000796
:010360000795
:010361000794
:010362000793
:010363000792
:010364000791
:010365000790
:01036600078F
:01036700078E
:01036800078D
:01036900068D
:01036A00068C
:01036B00068B
:01036C00068A
:01036D000689
:01036E000688
:01036F000687
:010370000686
:010371000685
:010372000684
:010373000683
:010374000682
:010375000681
:010376000680
:01037700067F
:01037800077D
:01037900077C
:01037A00077B
:01037B00077A
:01037C000779
:01037D000778
:01037E000777
:01037F000776
:010380000775
:010381000774
:010382000773
:010383000772
:010384000771
:010385000770
:01038600076F
:01038700076E
:01038800076D
:01038900076C
:01038A00076B
:01038B00076A
:01038C000769
:01038D000768
:01038E000767
:01038F000766
:010390000765
:010391000764
:010392000763
:010393000762
:010394000761
:010395000760
:01039600075F
:01039700075E
:01039800075D
:01039900075C
:01039A00075B
:01039B00075A
:01039C000759
:01039D000758
:01039E000757
:01039F000756
:0103A0000755
:0103A1000754
:0103A2000753
:0103A3000752
:0103A4000751
:0103A5000750
:0103A600074F
:0103A700074E
:0103A800074D
:0103A900074C
:0103AA00074B
:0103AB00074A
:0103AC000749
:0103AD000748
:0103AE000747
:0103AF000746
:0103B0000745
:0103B1000744
:0103B2000743
:0103B3000742
:0103B4000741
:0103B5000740
:0103B600073F
:0103B700073E
:0103B800073D
:0103B900073C
:0103BA00073B
:0103BB00073A
:0103BC000739
:0103BD000738
:0103BE000737
:0103BF000736
:0103C0000735
:0103C1000734
:0103C2000733
:0103C3000732
:0103C4000731
:0103C5000730
:0103C600072F
:0103C700072E
:0103C800072D
:0103C900072C
:0103CA00072B
:0103CB00072A
:0103CC000729
:0103CD000728
:0103CE000727
:0103CF000726
:0103D0000725
:0103D1000724
:0103D2000723
:0103D3000722
:0103D4000721
:0103D5000720
:0103D600071F
:0103D700071E
:0103D800071D
:0103D900071C
:0103DA00071B
:0103DB00071A
:0103DC000719
:0103DD000718
:0103DE000717
:0103DF000716
:0103E0000715
:0103E1000714
:0103E2000713
:0103E3000712
:0103E4000711
:0103E5000710
:0103E600070F
:0103E700070E
:0103E800070D
:0103E900070C
:0103EA00070B
:0103EB00070A
:0103EC000709
:0103ED000708
:0103EE000707
:0103EF000706
:0103F0000705
:0103F1000704
:0103F2000703
:0103F3000702
:0103F4000701
:0103F5000700
:0103F60007FF
:0103F70007FE
:0103F80007FD
:0103F90007FC
:0103FA0007FB
:0103FB0007FA
:0103FC0007F9
:0103FD0007F8
:0103FE0007F7
:0103FF0007F6
:00000001FF
