:0100000000FF
:0100010000FE
:0100020000FD
:0100030000FC
:0100040001FA
:0100050001F9
:0100060001F8
:0100070001F7
:0100080001F6
:0100090001F5
:01000A0001F4
:01000B0001F3
:01000C0001F2
:01000D0001F1
:01000E0001F0
:01000F0001EF
:0100100001EE
:0100110001ED
:0100120001EC
:0100130001EB
:0100140000EB
:0100150000EA
:0100160000E9
:0100170000E8
:0100180000E7
:0100190000E6
:01001A0000E5
:01001B0000E4
:01001C0000E3
:01001D0000E2
:01001E0000E1
:01001F0000E0
:0100200000DF
:0100210000DE
:0100220000DD
:0100230000DC
:0100240001DA
:0100250001D9
:0100260001D8
:0100270001D7
:0100280001D6
:0100290001D5
:01002A0001D4
:01002B0001D3
:01002C0001D2
:01002D0001D1
:01002E0001D0
:01002F0001CF
:0100300001CE
:0100310001CD
:0100320001CC
:0100330001CB
:0100340000CB
:0100350000CA
:0100360000C9
:0100370000C8
:0100380000C7
:0100390000C6
:01003A0000C5
:01003B0000C4
:01003C0000C3
:01003D0000C2
:01003E0000C1
:01003F0000C0
:0100400000BF
:0100410000BE
:0100420000BD
:0100430000BC
:0100440001BA
:0100450001B9
:0100460001B8
:0100470001B7
:0100480001B6
:0100490001B5
:01004A0001B4
:01004B0001B3
:01004C0001B2
:01004D0001B1
:01004E0001B0
:01004F0001AF
:0100500001AE
:0100510001AD
:0100520001AC
:0100530001AB
:0100540000AB
:0100550000AA
:0100560000A9
:0100570000A8
:0100580000A7
:0100590000A6
:01005A0000A5
:01005B0000A4
:01005C0000A3
:01005D0000A2
:01005E0000A1
:01005F0000A0
:01006000009F
:01006100009E
:01006200009D
:01006300009C
:01006400019A
:010065000199
:010066000198
:010067000197
:010068000196
:010069000195
:01006A000194
:01006B000193
:01006C000192
:01006D000191
:01006E000190
:01006F00018F
:01007000018E
:01007100018D
:01007200018C
:01007300018B
:01007400008B
:01007500008A
:010076000089
:010077000088
:010078000087
:010079000086
:01007A000085
:01007B000084
:01007C000083
:01007D000082
:01007E000081
:01007F000080
:01008000007F
:01008100007E
:01008200007D
:01008300007C
:01008400007B
:01008500007A
:010086000079
:010087000078
:010088000176
:010089000175
:01008A000174
:01008B000173
:01008C000172
:01008D000171
:01008E000170
:01008F00016F
:01009000016E
:01009100016D
:01009200016C
:01009300016B
:01009400016A
:010095000169
:010096000168
:010097000167
:010098000067
:010099000066
:01009A000065
:01009B000064
:01009C000063
:01009D000062
:01009E000061
:01009F000060
:0100A000005F
:0100A100005E
:0100A200005D
:0100A300005C
:0100A400005B
:0100A500005A
:0100A6000059
:0100A7000058
:0100A8000156
:0100A9000155
:0100AA000154
:0100AB000153
:0100AC000152
:0100AD000151
:0100AE000150
:0100AF00014F
:0100B000014E
:0100B100014D
:0100B200014C
:0100B300014B
:0100B400014A
:0100B5000149
:0100B6000148
:0100B7000147
:0100B8000047
:0100B9000046
:0100BA000045
:0100BB000044
:0100BC000043
:0100BD000042
:0100BE000041
:0100BF000040
:0100C000003F
:0100C100003E
:0100C200003D
:0100C300003C
:0100C400003B
:0100C500003A
:0100C6000039
:0100C7000038
:0100C8000136
:0100C9000135
:0100CA000134
:0100CB000133
:0100CC000132
:0100CD000131
:0100CE000130
:0100CF00012F
:0100D000012E
:0100D100012D
:0100D200012C
:0100D300012B
:0100D400012A
:0100D5000129
:0100D6000128
:0100D7000127
:0100D8000027
:0100D9000026
:0100DA000025
:0100DB000024
:0100DC000023
:0100DD000022
:0100DE000021
:0100DF000020
:0100E000001F
:0100E100001E
:0100E200001D
:0100E300001C
:0100E400001B
:0100E500001A
:0100E6000019
:0100E7000018
:0100E8000116
:0100E9000115
:0100EA000114
:0100EB000113
:0100EC000112
:0100ED000111
:0100EE000110
:0100EF00010F
:0100F000010E
:0100F100010D
:0100F200010C
:0100F300010B
:0100F400010A
:0100F5000109
:0100F6000108
:0100F7000107
:0100F8000007
:0100F9000006
:0100FA000005
:0100FB000004
:0100FC000003
:0100FD000002
:0100FE000001
:0100FF000000
:0101000000FE
:0101010000FD
:0101020000FC
:0101030000FB
:0101040000FA
:0101050000F9
:0101060000F8
:0101070000F7
:0101080001F5
:0101090001F4
:01010A0001F3
:01010B0001F2
:01010C0004EE
:01010D0004ED
:01010E0004EC
:01010F0004EB
:0101100002EC
:0101110002EB
:0101120002EA
:0101130002E9
:0101140004E6
:0101150004E5
:0101160004E4
:0101170004E3
:0101180000E6
:0101190000E5
:01011A0000E4
:01011B0000E3
:01011C0002E0
:01011D0002DF
:01011E0002DE
:01011F0002DD
:0101200000DE
:0101210000DD
:0101220000DC
:0101230000DB
:0101240000DA
:0101250000D9
:0101260000D8
:0101270000D7
:0101280001D5
:0101290001D4
:01012A0001D3
:01012B0001D2
:01012C0004CE
:01012D0004CD
:01012E0004CC
:01012F0004CB
:0101300002CC
:0101310002CB
:0101320002CA
:0101330002C9
:0101340004C6
:0101350004C5
:0101360004C4
:0101370004C3
:0101380000C6
:0101390000C5
:01013A0000C4
:01013B0000C3
:01013C0002C0
:01013D0002BF
:01013E0002BE
:01013F0000BF
:0101400000BE
:0101410000BD
:0101420000BC
:0101430000BB
:0101440000BA
:0101450000B9
:0101460000B8
:0101470000B7
:0101480001B5
:0101490001B4
:01014A0001B3
:01014B0001B2
:01014C0004AE
:01014D0004AD
:01014E0004AC
:01014F0004AB
:0101500002AC
:0101510002AB
:0101520002AA
:0101530002A9
:0101540004A6
:0101550004A5
:0101560004A4
:0101570004A3
:0101580000A6
:0101590000A5
:01015A0000A4
:01015B0000A3
:01015C0002A0
:01015D00029F
:01015E00029E
:01015F00029D
:01016000009E
:01016100009D
:01016200009C
:01016300009B
:01016400009A
:010165000099
:010166000098
:010167000097
:010168000195
:010169000194
:01016A000193
:01016B000192
:01016C00048E
:01016D00048D
:01016E00048C
:01016F00048B
:01017000028C
:01017100028B
:01017200028A
:010173000289
:010174000486
:010175000485
:010176000484
:010177000483
:010178000086
:010179000085
:01017A000084
:01017B000083
:01017C000280
:01017D00027F
:01017E00027E
:01017F00027D
:01018000007E
:01018100007D
:01018200007C
:01018300007B
:010184000179
:010185000178
:010186000177
:010187000176
:010188000175
:010189000174
:01018A000173
:01018B000172
:01018C000270
:01018D00026F
:01018E00026E
:01018F00026D
:01019000026C
:01019100026B
:01019200026A
:010193000269
:010194000268
:010195000267
:010196000266
:010197000265
:010198000066
:010199000065
:01019A000064
:01019B000063
:01019C000161
:01019D000160
:01019E00015F
:01019F00015E
:0101A000005E
:0101A100005D
:0101A200005C
:0101A300005B
:0101A4000159
:0101A5000158
:0101A6000157
:0101A7000156
:0101A8000155
:0101A9000154
:0101AA000153
:0101AB000152
:0101AC000250
:0101AD00024F
:0101AE00024E
:0101AF00024D
:0101B000024C
:0101B100024B
:0101B200024A
:0101B3000249
:0101B4000248
:0101B5000247
:0101B6000246
:0101B7000245
:0101B8000046
:0101B9000045
:0101BA000044
:0101BB000043
:0101BC000141
:0101BD000140
:0101BE00013F
:0101BF00013E
:0101C000003E
:0101C100003D
:0101C200003C
:0101C300003B
:0101C4000139
:0101C5000138
:0101C6000137
:0101C7000136
:0101C8000135
:0101C9000134
:0101CA000133
:0101CB000132
:0101CC000230
:0101CD00022F
:0101CE00022E
:0101CF00022D
:0101D000022C
:0101D100022B
:0101D200022A
:0101D3000229
:0101D4000228
:0101D5000227
:0101D6000226
:0101D7000225
:0101D8000026
:0101D9000025
:0101DA000024
:0101DB000023
:0101DC000121
:0101DD000120
:0101DE00011F
:0101DF00011E
:0101E000001E
:0101E100001D
:0101E200001C
:0101E300001B
:0101E4000119
:0101E5000118
:0101E6000117
:0101E7000116
:0101E8000115
:0101E9000114
:0101EA000113
:0101EB000112
:0101EC000210
:0101ED00020F
:0101EE00020E
:0101EF00020D
:0101F000020C
:0101F100020B
:0101F200020A
:0101F3000209
:0101F4000208
:0101F5000207
:0101F6000206
:0101F7000205
:0101F8000006
:0101F9000005
:0101FA000004
:0101FB000003
:0101FC000101
:0101FD000100
:0101FE0001FF
:0101FF0001FE
:0102000002FB
:0102010002FA
:0102020002F9
:0102030002F8
:0102040000F9
:0102050000F8
:0102060000F7
:0102070000F6
:0102080001F4
:0102090001F3
:01020A0001F2
:01020B0001F1
:01020C0002EF
:01020D0002EE
:01020E0002ED
:01020F0002EC
:0102100004E9
:0102110004E8
:0102120004E7
:0102130004E6
:0102140002E7
:0102150002E6
:0102160002E5
:0102170002E4
:0102180000E5
:0102190000E4
:01021A0000E3
:01021B0000E2
:01021C0002DF
:01021D0002DE
:01021E0002DD
:01021F0002DC
:0102200002DB
:0102210002DA
:0102220002D9
:0102230002D8
:0102240000D9
:0102250000D8
:0102260000D7
:0102270000D6
:0102280001D4
:0102290001D3
:01022A0001D2
:01022B0001D1
:01022C0002CF
:01022D0002CE
:01022E0002CD
:01022F0002CC
:0102300004C9
:0102310004C8
:0102320004C7
:0102330004C6
:0102340002C7
:0102350002C6
:0102360002C5
:0102370002C4
:0102380000C5
:0102390000C4
:01023A0000C3
:01023B0000C2
:01023C0002BF
:01023D0002BE
:01023E0002BD
:01023F0002BC
:0102400002BB
:0102410002BA
:0102420002B9
:0102430002B8
:0102440000B9
:0102450000B8
:0102460000B7
:0102470000B6
:0102480001B4
:0102490001B3
:01024A0001B2
:01024B0001B1
:01024C0002AF
:01024D0002AE
:01024E0002AD
:01024F0002AC
:0102500004A9
:0102510004A8
:0102520004A7
:0102530004A6
:0102540002A7
:0102550002A6
:0102560002A5
:0102570002A4
:0102580000A5
:0102590000A4
:01025A0000A3
:01025B0000A2
:01025C00029F
:01025D00029E
:01025E00029D
:01025F00029C
:01026000029B
:01026100029A
:010262000299
:010263000298
:010264000099
:010265000098
:010266000097
:010267000096
:010268000194
:010269000193
:01026A000192
:01026B000191
:01026C00028F
:01026D00028E
:01026E00028D
:01026F00028C
:010270000489
:010271000488
:010272000487
:010273000486
:010274000287
:010275000286
:010276000285
:010277000284
:010278000085
:010279000084
:01027A000083
:01027B000082
:01027C00027F
:01027D00027E
:01027E00027D
:01027F00027C
:01028000007D
:01028100007C
:01028200007B
:01028300007A
:010284000079
:010285000078
:010286000077
:010287000076
:010288000174
:010289000173
:01028A000172
:01028B000171
:01028C000170
:01028D00016F
:01028E00016E
:01028F00016D
:01029000016C
:01029100016B
:01029200016A
:010293000169
:010294000168
:010295000167
:010296000166
:010297000165
:010298000164
:010299000163
:01029A000162
:01029B000161
:01029C000061
:01029D000060
:01029E00005F
:01029F00005E
:0102A000005D
:0102A100005C
:0102A200005B
:0102A300005A
:0102A4000059
:0102A5000058
:0102A6000057
:0102A7000056
:0102A8000154
:0102A9000153
:0102AA000152
:0102AB000151
:0102AC000150
:0102AD00014F
:0102AE00014E
:0102AF00014D
:0102B000014C
:0102B100014B
:0102B200014A
:0102B3000149
:0102B4000148
:0102B5000147
:0102B6000146
:0102B7000145
:0102B8000144
:0102B9000143
:0102BA000142
:0102BB000141
:0102BC000041
:0102BD000040
:0102BE00003F
:0102BF00003E
:0102C000003D
:0102C100003C
:0102C200003B
:0102C300003A
:0102C4000039
:0102C5000038
:0102C6000037
:0102C7000036
:0102C8000134
:0102C9000133
:0102CA000132
:0102CB000131
:0102CC000130
:0102CD00012F
:0102CE00012E
:0102CF00012D
:0102D000012C
:0102D100012B
:0102D200012A
:0102D3000129
:0102D4000128
:0102D5000127
:0102D6000126
:0102D7000125
:0102D8000124
:0102D9000123
:0102DA000122
:0102DB000121
:0102DC000021
:0102DD000020
:0102DE00001F
:0102DF00001E
:0102E000001D
:0102E100001C
:0102E200001B
:0102E300001A
:0102E4000019
:0102E5000018
:0102E6000017
:0102E7000016
:0102E8000114
:0102E9000113
:0102EA000112
:0102EB000111
:0102EC000110
:0102ED00010F
:0102EE00010E
:0102EF00010D
:0102F000010C
:0102F100010B
:0102F200010A
:0102F3000109
:0102F4000108
:0102F5000107
:0102F6000106
:0102F7000105
:0102F8000104
:0102F9000103
:0102FA000102
:0102FB000101
:0102FC000001
:0102FD000000
:0102FE0000FF
:0102FF0000FE
:0103000000FC
:0103010000FB
:0103020000FA
:0103030000F9
:0103040000F8
:0103050000F7
:0103060000F6
:0103070000F5
:0103080001F3
:0103090001F2
:01030A0001F1
:01030B0001F0
:01030C0001EF
:01030D0001EE
:01030E0001ED
:01030F0001EC
:0103100001EB
:0103110001EA
:0103120001E9
:0103130001E8
:0103140001E7
:0103150001E6
:0103160001E5
:0103170001E4
:0103180000E4
:0103190000E3
:01031A0000E2
:01031B0000E1
:01031C0000E0
:01031D0000DF
:01031E0000DE
:01031F0000DD
:0103200000DC
:0103210000DB
:0103220000DA
:0103230000D9
:0103240000D8
:0103250000D7
:0103260000D6
:0103270000D5
:0103280001D3
:0103290001D2
:01032A0001D1
:01032B0001D0
:01032C0001CF
:01032D0001CE
:01032E0001CD
:01032F0001CC
:0103300001CB
:0103310001CA
:0103320001C9
:0103330001C8
:0103340001C7
:0103350001C6
:0103360001C5
:0103370001C4
:0103380000C4
:0103390000C3
:01033A0000C2
:01033B0000C1
:01033C0000C0
:01033D0000BF
:01033E0000BE
:01033F0000BD
:0103400000BC
:0103410000BB
:0103420000BA
:0103430000B9
:0103440000B8
:0103450000B7
:0103460000B6
:0103470000B5
:0103480001B3
:0103490001B2
:01034A0001B1
:01034B0001B0
:01034C0001AF
:01034D0001AE
:01034E0001AD
:01034F0001AC
:0103500001AB
:0103510001AA
:0103520001A9
:0103530001A8
:0103540001A7
:0103550001A6
:0103560001A5
:0103570001A4
:0103580000A4
:0103590000A3
:01035A0000A2
:01035B0000A1
:01035C0000A0
:01035D00009F
:01035E00009E
:01035F00009D
:01036000009C
:01036100009B
:01036200009A
:010363000099
:010364000098
:010365000097
:010366000096
:010367000095
:010368000193
:010369000192
:01036A000191
:01036B000190
:01036C00018F
:01036D00018E
:01036E00018D
:01036F00018C
:01037000018B
:01037100018A
:010372000189
:010373000188
:010374000187
:010375000186
:010376000185
:010377000184
:010378000084
:010379000083
:01037A000082
:01037B000081
:01037C000080
:01037D00007F
:01037E00007E
:01037F00007D
:01038000007C
:01038100007B
:01038200007A
:010383000079
:010384000078
:010385000077
:010386000076
:010387000075
:010388000173
:010389000172
:01038A000171
:01038B000170
:01038C000070
:01038D00006F
:01038E00006E
:01038F00006D
:01039000006C
:01039100006B
:01039200006A
:010393000069
:010394000167
:010395000166
:010396000165
:010397000164
:010398000064
:010399000063
:01039A000062
:01039B000061
:01039C000060
:01039D00005F
:01039E00005E
:01039F00005D
:0103A000005C
:0103A100005B
:0103A200005A
:0103A3000059
:0103A4000058
:0103A5000057
:0103A6000056
:0103A7000055
:0103A8000153
:0103A9000152
:0103AA000151
:0103AB000150
:0103AC000050
:0103AD00004F
:0103AE00004E
:0103AF00004D
:0103B000004C
:0103B100004B
:0103B200004A
:0103B3000049
:0103B4000147
:0103B5000146
:0103B6000145
:0103B7000144
:0103B8000044
:0103B9000043
:0103BA000042
:0103BB000041
:0103BC000040
:0103BD00003F
:0103BE00003E
:0103BF00003D
:0103C000003C
:0103C100003B
:0103C200003A
:0103C3000039
:0103C4000038
:0103C5000037
:0103C6000036
:0103C7000035
:0103C8000133
:0103C9000132
:0103CA000131
:0103CB000130
:0103CC000030
:0103CD00002F
:0103CE00002E
:0103CF00002D
:0103D000002C
:0103D100002B
:0103D200002A
:0103D3000029
:0103D4000127
:0103D5000126
:0103D6000125
:0103D7000124
:0103D8000024
:0103D9000023
:0103DA000022
:0103DB000021
:0103DC000020
:0103DD00001F
:0103DE00001E
:0103DF00001D
:0103E000001C
:0103E100001B
:0103E200001A
:0103E3000019
:0103E4000018
:0103E5000017
:0103E6000016
:0103E7000015
:0103E8000113
:0103E9000112
:0103EA000111
:0103EB000110
:0103EC000010
:0103ED00000F
:0103EE00000E
:0103EF00000D
:0103F000000C
:0103F100000B
:0103F200000A
:0103F3000009
:0103F4000107
:0103F5000106
:0103F6000105
:0103F7000104
:0103F8000004
:0103F9000003
:0103FA000002
:0103FB000001
:0103FC000000
:0103FD0000FF
:0103FE0000FE
:0103FF0000FD
:0104000000FB
:00000001FF
