:0100000007F8
:0100010007F7
:0100020007F6
:0100030007F5
:0100040007F4
:0100050007F3
:0100060007F2
:0100070007F1
:0100080007F0
:0100090007EF
:01000A0007EE
:01000B0007ED
:01000C0007EC
:01000D0007EB
:01000E0007EA
:01000F0007E9
:0100100007E8
:0100110007E7
:0100120007E6
:0100130007E5
:0100140007E4
:0100150007E3
:0100160007E2
:0100170007E1
:0100180007E0
:0100190007DF
:01001A0007DE
:01001B0007DD
:01001C0007DC
:01001D0007DB
:01001E0007DA
:01001F0007D9
:0100200007D8
:0100210007D7
:0100220007D6
:0100230007D5
:0100240007D4
:0100250007D3
:0100260007D2
:0100270007D1
:0100280007D0
:0100290007CF
:01002A0007CE
:01002B0007CD
:01002C0007CC
:01002D0007CB
:01002E0007CA
:01002F0007C9
:0100300007C8
:0100310007C7
:0100320007C6
:0100330007C5
:0100340007C4
:0100350007C3
:0100360007C2
:0100370007C1
:0100380007C0
:0100390007BF
:01003A0007BE
:01003B0007BD
:01003C0007BC
:01003D0007BB
:01003E0007BA
:01003F0007B9
:0100400007B8
:0100410007B7
:0100420007B6
:0100430007B5
:0100440007B4
:0100450007B3
:0100460007B2
:0100470007B1
:0100480007B0
:0100490007AF
:01004A0002B3
:01004B0002B2
:01004C0002B1
:01004D0002B0
:01004E0002AF
:01004F0002AE
:0100500002AD
:0100510002AC
:0100520002AB
:0100530002AA
:0100540002A9
:0100550002A8
:0100560002A7
:0100570002A6
:0100580002A5
:0100590002A4
:01005A00079E
:01005B00079D
:01005C00079C
:01005D00079B
:01005E00079A
:01005F000799
:010060000798
:010061000797
:010062000796
:010063000795
:010064000794
:010065000793
:010066000792
:010067000791
:010068000790
:01006900078F
:01006A000293
:01006B000292
:01006C000291
:01006D000290
:01006E00028F
:01006F00028E
:01007000028D
:01007100028C
:01007200028B
:01007300028A
:010074000289
:010075000288
:010076000287
:010077000286
:010078000285
:010079000284
:01007A00077E
:01007B00077D
:01007C00077C
:01007D00077B
:01007E00077A
:01007F000779
:010080000778
:010081000777
:010082000776
:010083000775
:010084000279
:010085000278
:010086000277
:010087000276
:010088000275
:010089000274
:01008A000273
:01008B000272
:01008C000271
:01008D000270
:01008E00026F
:01008F00026E
:01009000026D
:01009100026C
:01009200026B
:01009300026A
:010094000269
:010095000268
:010096000267
:010097000266
:010098000265
:010099000264
:01009A000263
:01009B000262
:01009C00075C
:01009D00075B
:01009E00075A
:01009F000759
:0100A0000758
:0100A1000757
:0100A2000756
:0100A3000755
:0100A4000259
:0100A5000258
:0100A6000257
:0100A7000256
:0100A8000255
:0100A9000254
:0100AA000253
:0100AB000252
:0100AC000251
:0100AD000250
:0100AE00024F
:0100AF00024E
:0100B000024D
:0100B100024C
:0100B200024B
:0100B300024A
:0100B4000249
:0100B5000248
:0100B6000247
:0100B7000246
:0100B8000245
:0100B9000244
:0100BA000243
:0100BB000242
:0100BC00073C
:0100BD00073B
:0100BE00073A
:0100BF000739
:0100C000023D
:0100C100023C
:0100C200023B
:0100C300023A
:0100C4000239
:0100C5000238
:0100C6000237
:0100C7000236
:0100C8000235
:0100C9000234
:0100CA000233
:0100CB000232
:0100CC000231
:0100CD000230
:0100CE000031
:0100CF000030
:0100D000022D
:0100D100022C
:0100D200022B
:0100D300022A
:0100D4000229
:0100D5000228
:0100D6000029
:0100D7000028
:0100D8000225
:0100D9000224
:0100DA000223
:0100DB000222
:0100DC000221
:0100DD000220
:0100DE00021F
:0100DF00021E
:0100E000021D
:0100E100021C
:0100E200021B
:0100E300021A
:0100E4000219
:0100E5000218
:0100E6000217
:0100E7000216
:0100E8000215
:0100E9000214
:0100EA000213
:0100EB000212
:0100EC000211
:0100ED000210
:0100EE000011
:0100EF000010
:0100F000020D
:0100F100020C
:0100F200020B
:0100F300020A
:0100F4000209
:0100F5000208
:0100F6000009
:0100F7000008
:0100F8000205
:0100F9000204
:0100FA000203
:0100FB000202
:0100FC000201
:0100FD000200
:0100FE0002FF
:0100FF0002FE
:0101000007F7
:0101010007F6
:0101020007F5
:0101030007F4
:0101040002F8
:0101050002F7
:0101060002F6
:0101070002F5
:0101080002F4
:0101090002F3
:01010A0002F2
:01010B0002F1
:01010C0002F0
:01010D0002EF
:01010E0005EB
:01010F0005EA
:0101100002EC
:0101110002EB
:0101120002EA
:0101130002E9
:0101140002E8
:0101150002E7
:0101160005E3
:0101170005E2
:0101180002E4
:0101190002E3
:01011A0002E2
:01011B0002E1
:01011C0002E0
:01011D0002DF
:01011E0007D9
:01011F0007D8
:0101200007D7
:0101210007D6
:0101220007D5
:0101230007D4
:0101240002D8
:0101250002D7
:0101260002D6
:0101270002D5
:0101280002D4
:0101290002D3
:01012A0002D2
:01012B0002D1
:01012C0002D0
:01012D0002CF
:01012E0005CB
:01012F0005CA
:0101300002CC
:0101310002CB
:0101320002CA
:0101330002C9
:0101340002C8
:0101350002C7
:0101360005C3
:0101370005C2
:0101380002C4
:0101390002C3
:01013A0002C2
:01013B0002C1
:01013C0002C0
:01013D0002BF
:01013E0007B9
:01013F0007B8
:0101400007B7
:0101410007B6
:0101420007B5
:0101430007B4
:0101440007B3
:0101450007B2
:0101460007B1
:0101470007B0
:0101480002B4
:0101490002B3
:01014A0002B2
:01014B0002B1
:01014C0002B0
:01014D0002AF
:01014E0002AE
:01014F0002AD
:0101500002AC
:0101510002AB
:0101520002AA
:0101530002A9
:0101540002A8
:0101550002A7
:0101560002A6
:0101570002A5
:0101580002A4
:0101590002A3
:01015A00079D
:01015B00079C
:01015C00079B
:01015D00079A
:01015E000799
:01015F000798
:010160000797
:010161000796
:010162000795
:010163000794
:010164000793
:010165000792
:010166000791
:010167000790
:010168000294
:010169000293
:01016A000292
:01016B000291
:01016C000290
:01016D00028F
:01016E00028E
:01016F00028D
:01017000028C
:01017100028B
:01017200028A
:010173000289
:010174000288
:010175000287
:010176000286
:010177000285
:010178000284
:010179000283
:01017A00077D
:01017B00077C
:01017C00077B
:01017D00077A
:01017E000779
:01017F000778
:010180000777
:010181000776
:010182000775
:010183000774
:010184000773
:010185000772
:010186000771
:010187000770
:01018800076F
:01018900076E
:01018A00076D
:01018B00076C
:01018C000171
:01018D000170
:01018E000070
:01018F00006F
:01019000016D
:01019100016C
:010192000567
:010193000566
:010194000367
:010195000366
:010196000167
:010197000166
:01019800075F
:01019900075E
:01019A00075D
:01019B00075C
:01019C00075B
:01019D00075A
:01019E000759
:01019F000758
:0101A0000757
:0101A1000756
:0101A2000755
:0101A3000754
:0101A4000753
:0101A5000752
:0101A6000751
:0101A7000750
:0101A800074F
:0101A900074E
:0101AA00074D
:0101AB00074C
:0101AC000151
:0101AD000150
:0101AE000050
:0101AF00004F
:0101B000014D
:0101B100014C
:0101B2000547
:0101B3000546
:0101B4000347
:0101B5000346
:0101B6000147
:0101B7000146
:0101B800073F
:0101B900073E
:0101BA00073D
:0101BB00073C
:0101BC00073B
:0101BD00073A
:0101BE000739
:0101BF000738
:0101C0000737
:0101C1000736
:0101C2000735
:0101C3000734
:0101C4000733
:0101C5000732
:0101C6000236
:0101C7000235
:0101C8000135
:0101C9000134
:0101CA000133
:0101CB000132
:0101CC000131
:0101CD000130
:0101CE00012F
:0101CF00012E
:0101D000002E
:0101D100002D
:0101D2000527
:0101D3000526
:0101D4000327
:0101D5000326
:0101D6000127
:0101D7000126
:0101D8000125
:0101D9000124
:0101DA000123
:0101DB000122
:0101DC000220
:0101DD00021F
:0101DE000719
:0101DF000718
:0101E0000717
:0101E1000716
:0101E2000715
:0101E3000714
:0101E4000713
:0101E5000712
:0101E6000216
:0101E7000215
:0101E8000115
:0101E9000114
:0101EA000113
:0101EB000112
:0101EC000111
:0101ED000110
:0101EE00010F
:0101EF00010E
:0101F000000E
:0101F100000D
:0101F2000507
:0101F3000506
:0101F4000307
:0101F5000306
:0101F6000107
:0101F7000106
:0101F8000105
:0101F9000104
:0101FA000103
:0101FB000102
:0101FC000200
:0101FD0002FF
:0101FE0007F9
:0101FF0007F8
:0102000000FD
:0102010007F5
:0102020007F4
:0102030007F3
:0102040007F2
:0102050007F1
:0102060007F0
:0102070007EF
:0102080007EE
:0102090007ED
:01020A0007EC
:01020B0007EB
:01020C0001F0
:01020D0001EF
:01020E0000EF
:01020F0000EE
:0102100001EC
:0102110001EB
:0102120005E6
:0102130005E5
:0102140003E6
:0102150003E5
:0102160001E6
:0102170001E5
:0102180007DE
:0102190007DD
:01021A0007DC
:01021B0007DB
:01021C0007DA
:01021D0007D9
:01021E0007D8
:01021F0007D7
:0102200000DD
:0102210007D5
:0102220007D4
:0102230007D3
:0102240007D2
:0102250007D1
:0102260007D0
:0102270007CF
:0102280007CE
:0102290007CD
:01022A0007CC
:01022B0007CB
:01022C0001D0
:01022D0001CF
:01022E0000CF
:01022F0000CE
:0102300001CC
:0102310001CB
:0102320005C6
:0102330005C5
:0102340003C6
:0102350003C5
:0102360001C6
:0102370001C5
:0102380007BE
:0102390007BD
:01023A0007BC
:01023B0007BB
:01023C0007BA
:01023D0007B9
:01023E0007B8
:01023F0007B7
:0102400000BD
:0102410007B5
:0102420007B4
:0102430007B3
:0102440007B2
:0102450007B1
:0102460007B0
:0102470007AF
:0102480007AE
:0102490007AD
:01024A0007AC
:01024B0007AB
:01024C0001B0
:01024D0001AF
:01024E0001AE
:01024F0001AD
:0102500000AD
:0102510000AC
:0102520003A8
:0102530003A7
:0102540001A8
:0102550001A7
:0102560001A6
:0102570001A5
:01025800079E
:01025900079D
:01025A00079C
:01025B00079B
:01025C00079A
:01025D000799
:01025E000798
:01025F000797
:01026000009D
:010261000795
:010262000794
:010263000793
:010264000792
:010265000791
:010266000790
:01026700078F
:01026800078E
:01026900078D
:01026A00078C
:01026B00078B
:01026C000190
:01026D00018F
:01026E00018E
:01026F00018D
:01027000008D
:01027100008C
:010272000388
:010273000387
:010274000188
:010275000187
:010276000186
:010277000185
:01027800077E
:01027900077D
:01027A00077C
:01027B00077B
:01027C00077A
:01027D000779
:01027E000778
:01027F000777
:01028000007D
:010281000775
:010282000774
:010283000773
:010284000772
:010285000771
:010286000770
:01028700076F
:01028800076E
:01028900076D
:01028A00076C
:01028B00076B
:01028C00076A
:01028D000769
:01028E00056A
:01028F000569
:010290000766
:010291000765
:010292000764
:010293000763
:010294000564
:010295000563
:010296000760
:01029700075F
:01029800075E
:01029900075D
:01029A00075C
:01029B00075B
:01029C00075A
:01029D000759
:01029E000758
:01029F000757
:0102A0000756
:0102A1000755
:0102A2000754
:0102A3000753
:0102A4000752
:0102A5000751
:0102A6000750
:0102A700074F
:0102A800074E
:0102A900074D
:0102AA00074C
:0102AB00074B
:0102AC00074A
:0102AD000749
:0102AE00054A
:0102AF000549
:0102B0000746
:0102B1000745
:0102B2000744
:0102B3000743
:0102B4000544
:0102B5000543
:0102B6000740
:0102B700073F
:0102B800073E
:0102B900073D
:0102BA00073C
:0102BB00073B
:0102BC00073A
:0102BD000739
:0102BE000738
:0102BF000737
:0102C0000736
:0102C1000735
:0102C2000734
:0102C3000733
:0102C4000732
:0102C5000731
:0102C6000730
:0102C700072F
:0102C800072E
:0102C900072D
:0102CA00072C
:0102CB00072B
:0102CC00062B
:0102CD00062A
:0102CE00002F
:0102CF00002E
:0102D0000627
:0102D1000626
:0102D2000625
:0102D3000624
:0102D4000029
:0102D5000028
:0102D6000621
:0102D7000620
:0102D800071E
:0102D900071D
:0102DA00071C
:0102DB00071B
:0102DC00071A
:0102DD000719
:0102DE000718
:0102DF000717
:0102E0000716
:0102E1000715
:0102E2000714
:0102E3000713
:0102E4000712
:0102E5000711
:0102E6000710
:0102E700070F
:0102E800070E
:0102E900070D
:0102EA00070C
:0102EB00070B
:0102EC00060B
:0102ED00060A
:0102EE00000F
:0102EF00000E
:0102F0000607
:0102F1000606
:0102F2000605
:0102F3000604
:0102F4000009
:0102F5000008
:0102F6000601
:0102F7000600
:0102F80007FE
:0102F90007FD
:0102FA0007FC
:0102FB0007FB
:0102FC0007FA
:0102FD0007F9
:0102FE0007F8
:0102FF0007F7
:0103000007F5
:0103010007F4
:0103020007F3
:0103030007F2
:0103040007F1
:0103050007F0
:0103060007EF
:0103070007EE
:0103080007ED
:0103090007EC
:01030A0006EC
:01030B0006EB
:01030C0006EA
:01030D0006E9
:01030E0003EB
:01030F0003EA
:0103100003E9
:0103110003E8
:0103120003E7
:0103130003E6
:0103140003E5
:0103150003E4
:0103160006E0
:0103170006DF
:0103180006DE
:0103190006DD
:01031A0007DB
:01031B0007DA
:01031C0007D9
:01031D0007D8
:01031E0007D7
:01031F0007D6
:0103200007D5
:0103210007D4
:0103220007D3
:0103230007D2
:0103240007D1
:0103250007D0
:0103260007CF
:0103270007CE
:0103280007CD
:0103290007CC
:01032A0006CC
:01032B0006CB
:01032C0006CA
:01032D0006C9
:01032E0003CB
:01032F0003CA
:0103300003C9
:0103310003C8
:0103320003C7
:0103330003C6
:0103340003C5
:0103350003C4
:0103360006C0
:0103370006BF
:0103380006BE
:0103390006BD
:01033A0007BB
:01033B0007BA
:01033C0007B9
:01033D0007B8
:01033E0007B7
:01033F0007B6
:0103400007B5
:0103410007B4
:0103420007B3
:0103430007B2
:0103440007B1
:0103450007B0
:0103460007AF
:0103470007AE
:0103480007AD
:0103490007AC
:01034A0006AC
:01034B0006AB
:01034C0003AD
:01034D0003AC
:01034E0003AB
:01034F0003AA
:0103500003A9
:0103510003A8
:0103520003A7
:0103530003A6
:0103540003A5
:0103550003A4
:0103560003A3
:0103570003A2
:01035800069E
:01035900069D
:01035A00079B
:01035B00079A
:01035C000799
:01035D000798
:01035E000797
:01035F000796
:010360000795
:010361000794
:010362000793
:010363000792
:010364000791
:010365000790
:01036600078F
:01036700078E
:01036800078D
:01036900078C
:01036A00068C
:01036B00068B
:01036C00038D
:01036D00038C
:01036E00038B
:01036F00038A
:010370000389
:010371000388
:010372000387
:010373000386
:010374000385
:010375000384
:010376000383
:010377000382
:01037800067E
:01037900067D
:01037A00077B
:01037B00077A
:01037C000779
:01037D000778
:01037E000777
:01037F000776
:010380000775
:010381000774
:010382000773
:010383000772
:010384000771
:010385000770
:01038600076F
:01038700076E
:01038800076D
:01038900076C
:01038A00066C
:01038B00066B
:01038C00066A
:01038D000669
:01038E00036B
:01038F00036A
:010390000369
:010391000368
:010392000367
:010393000366
:010394000365
:010395000364
:010396000660
:01039700065F
:01039800065E
:01039900065D
:01039A00075B
:01039B00075A
:01039C000759
:01039D000758
:01039E000757
:01039F000756
:0103A0000755
:0103A1000754
:0103A2000753
:0103A3000752
:0103A4000751
:0103A5000750
:0103A600074F
:0103A700074E
:0103A800074D
:0103A900074C
:0103AA00064C
:0103AB00064B
:0103AC00064A
:0103AD000649
:0103AE00034B
:0103AF00034A
:0103B0000349
:0103B1000348
:0103B2000347
:0103B3000346
:0103B4000345
:0103B5000344
:0103B6000640
:0103B700063F
:0103B800063E
:0103B900063D
:0103BA00073B
:0103BB00073A
:0103BC000739
:0103BD000738
:0103BE000737
:0103BF000736
:0103C0000735
:0103C1000734
:0103C2000733
:0103C3000732
:0103C4000731
:0103C5000730
:0103C600072F
:0103C700072E
:0103C800072D
:0103C900072C
:0103CA00072B
:0103CB00072A
:0103CC00062A
:0103CD000629
:0103CE000628
:0103CF000627
:0103D0000626
:0103D1000625
:0103D2000624
:0103D3000623
:0103D4000622
:0103D5000621
:0103D6000620
:0103D700061F
:0103D800071D
:0103D900071C
:0103DA00071B
:0103DB00071A
:0103DC000719
:0103DD000718
:0103DE000717
:0103DF000716
:0103E0000715
:0103E1000714
:0103E2000713
:0103E3000712
:0103E4000711
:0103E5000710
:0103E600070F
:0103E700070E
:0103E800070D
:0103E900070C
:0103EA00070B
:0103EB00070A
:0103EC00060A
:0103ED000609
:0103EE000608
:0103EF000607
:0103F0000606
:0103F1000605
:0103F2000604
:0103F3000603
:0103F4000602
:0103F5000601
:0103F6000600
:0103F70006FF
:0103F80007FD
:0103F90007FC
:0103FA0007FB
:0103FB0007FA
:0103FC0007F9
:0103FD0007F8
:0103FE0007F7
:0103FF0007F6
:00000001FF
